{
	"SimpleStorage.sol": {
		"SimpleStorage": {
			"abi": [
				{
					"inputs": [],
					"name": "activateContract",
					"outputs": [],
					"stateMutability": "nonpayable",
					"type": "function"
				},
				{
					"inputs": [
						{
							"internalType": "uint256",
							"name": "_number",
							"type": "uint256"
						}
					],
					"name": "addFavoriteNumber",
					"outputs": [],
					"stateMutability": "nonpayable",
					"type": "function"
				},
				{
					"inputs": [
						{
							"internalType": "string",
							"name": "_name",
							"type": "string"
						},
						{
							"internalType": "uint256",
							"name": "_favoriteNumber",
							"type": "uint256"
						}
					],
					"name": "addPerson",
					"outputs": [],
					"stateMutability": "nonpayable",
					"type": "function"
				},
				{
					"inputs": [],
					"name": "callInternalFunction",
					"outputs": [
						{
							"internalType": "string",
							"name": "",
							"type": "string"
						}
					],
					"stateMutability": "pure",
					"type": "function"
				},
				{
					"inputs": [],
					"name": "deactivateContract",
					"outputs": [],
					"stateMutability": "nonpayable",
					"type": "function"
				},
				{
					"inputs": [],
					"name": "externalFunction",
					"outputs": [
						{
							"internalType": "string",
							"name": "",
							"type": "string"
						}
					],
					"stateMutability": "pure",
					"type": "function"
				},
				{
					"inputs": [
						{
							"internalType": "uint256",
							"name": "",
							"type": "uint256"
						}
					],
					"name": "favoriteNumbers",
					"outputs": [
						{
							"internalType": "uint256",
							"name": "",
							"type": "uint256"
						}
					],
					"stateMutability": "view",
					"type": "function"
				},
				{
					"inputs": [],
					"name": "getFavoriteNumber",
					"outputs": [
						{
							"internalType": "uint256",
							"name": "",
							"type": "uint256"
						}
					],
					"stateMutability": "view",
					"type": "function"
				},
				{
					"inputs": [],
					"name": "isActive",
					"outputs": [
						{
							"internalType": "bool",
							"name": "",
							"type": "bool"
						}
					],
					"stateMutability": "view",
					"type": "function"
				},
				{
					"inputs": [
						{
							"internalType": "uint256",
							"name": "_compareValue",
							"type": "uint256"
						}
					],
					"name": "isGreaterThan",
					"outputs": [
						{
							"internalType": "bool",
							"name": "",
							"type": "bool"
						}
					],
					"stateMutability": "view",
					"type": "function"
				},
				{
					"inputs": [
						{
							"internalType": "uint256",
							"name": "",
							"type": "uint256"
						}
					],
					"name": "people",
					"outputs": [
						{
							"internalType": "string",
							"name": "name",
							"type": "string"
						},
						{
							"internalType": "uint256",
							"name": "favoriteNumber",
							"type": "uint256"
						}
					],
					"stateMutability": "view",
					"type": "function"
				},
				{
					"inputs": [],
					"name": "returnNumbers",
					"outputs": [
						{
							"internalType": "uint256[]",
							"name": "",
							"type": "uint256[]"
						}
					],
					"stateMutability": "view",
					"type": "function"
				},
				{
					"inputs": [],
					"name": "state",
					"outputs": [
						{
							"internalType": "enum SimpleStorage.ContractState",
							"name": "",
							"type": "uint8"
						}
					],
					"stateMutability": "view",
					"type": "function"
				},
				{
					"inputs": [
						{
							"internalType": "uint256",
							"name": "_favoriteNumber",
							"type": "uint256"
						}
					],
					"name": "storeNumber",
					"outputs": [],
					"stateMutability": "nonpayable",
					"type": "function"
				},
				{
					"inputs": [],
					"name": "sumToFavoriteNumber",
					"outputs": [
						{
							"internalType": "uint256",
							"name": "",
							"type": "uint256"
						}
					],
					"stateMutability": "view",
					"type": "function"
				},
				{
					"inputs": [],
					"name": "testExternalFunction",
					"outputs": [
						{
							"internalType": "string",
							"name": "",
							"type": "string"
						}
					],
					"stateMutability": "view",
					"type": "function"
				}
			],
			"devdoc": {
				"kind": "dev",
				"methods": {},
				"version": 1
			},
			"evm": {
				"assembly": "    /* \"SimpleStorage.sol\":58:2761  contract SimpleStorage {... */\n  mstore(0x40, 0x80)\n  callvalue\n  dup1\n  iszero\n  tag_1\n  jumpi\n  0x00\n  dup1\n  revert\ntag_1:\n  pop\n  dataSize(sub_0)\n  dup1\n  dataOffset(sub_0)\n  0x00\n  codecopy\n  0x00\n  return\nstop\n\nsub_0: assembly {\n        /* \"SimpleStorage.sol\":58:2761  contract SimpleStorage {... */\n      mstore(0x40, 0x80)\n      callvalue\n      dup1\n      iszero\n      tag_1\n      jumpi\n      0x00\n      dup1\n      revert\n    tag_1:\n      pop\n      jumpi(tag_2, lt(calldatasize, 0x04))\n      shr(0xe0, calldataload(0x00))\n      dup1\n      0x9e7a13ad\n      gt\n      tag_19\n      jumpi\n      dup1\n      0xbca353be\n      gt\n      tag_20\n      jumpi\n      dup1\n      0xbca353be\n      eq\n      tag_15\n      jumpi\n      dup1\n      0xc19d93fb\n      eq\n      tag_16\n      jumpi\n      dup1\n      0xcb6a33f8\n      eq\n      tag_17\n      jumpi\n      dup1\n      0xe0819c9a\n      eq\n      tag_18\n      jumpi\n      jump(tag_2)\n    tag_20:\n      dup1\n      0x9e7a13ad\n      eq\n      tag_11\n      jumpi\n      dup1\n      0xa621d15e\n      eq\n      tag_12\n      jumpi\n      dup1\n      0xa7e1a364\n      eq\n      tag_13\n      jumpi\n      dup1\n      0xb6339418\n      eq\n      tag_14\n      jumpi\n      jump(tag_2)\n    tag_19:\n      dup1\n      0x6f760f41\n      gt\n      tag_21\n      jumpi\n      dup1\n      0x6f760f41\n      eq\n      tag_7\n      jumpi\n      dup1\n      0x8701f8ca\n      eq\n      tag_8\n      jumpi\n      dup1\n      0x8fda356d\n      eq\n      tag_9\n      jumpi\n      dup1\n      0x99b8390a\n      eq\n      tag_10\n      jumpi\n      jump(tag_2)\n    tag_21:\n      dup1\n      0x0cd2636e\n      eq\n      tag_3\n      jumpi\n      dup1\n      0x22f3e2d4\n      eq\n      tag_4\n      jumpi\n      dup1\n      0x29cd1d96\n      eq\n      tag_5\n      jumpi\n      dup1\n      0x3a32b549\n      eq\n      tag_6\n      jumpi\n    tag_2:\n      0x00\n      dup1\n      revert\n        /* \"SimpleStorage.sol\":1116:1317  function sumToFavoriteNumber() public view returns (uint256) {... */\n    tag_3:\n      tag_22\n      tag_23\n      jump\t// in\n    tag_22:\n      mload(0x40)\n      tag_24\n      swap2\n      swap1\n      tag_25\n      jump\t// in\n    tag_24:\n      mload(0x40)\n      dup1\n      swap2\n      sub\n      swap1\n      return\n        /* \"SimpleStorage.sol\":2659:2759  function isActive() public view returns (bool) {... */\n    tag_4:\n      tag_26\n      tag_27\n      jump\t// in\n    tag_26:\n      mload(0x40)\n      tag_28\n      swap2\n      swap1\n      tag_29\n      jump\t// in\n    tag_28:\n      mload(0x40)\n      dup1\n      swap2\n      sub\n      swap1\n      return\n        /* \"SimpleStorage.sol\":160:192  uint256[] public favoriteNumbers */\n    tag_5:\n      tag_30\n      0x04\n      dup1\n      calldatasize\n      sub\n      dup2\n      add\n      swap1\n      tag_31\n      swap2\n      swap1\n      tag_32\n      jump\t// in\n    tag_31:\n      tag_33\n      jump\t// in\n    tag_30:\n      mload(0x40)\n      tag_34\n      swap2\n      swap1\n      tag_25\n      jump\t// in\n    tag_34:\n      mload(0x40)\n      dup1\n      swap2\n      sub\n      swap1\n      return\n        /* \"SimpleStorage.sol\":1764:1942  function externalFunction() external pure returns (string memory) {... */\n    tag_6:\n      tag_35\n      tag_36\n      jump\t// in\n    tag_35:\n      mload(0x40)\n      tag_37\n      swap2\n      swap1\n      tag_38\n      jump\t// in\n    tag_37:\n      mload(0x40)\n      dup1\n      swap2\n      sub\n      swap1\n      return\n        /* \"SimpleStorage.sol\":2345:2477  function addPerson(string memory _name, uint256 _favoriteNumber) public {... */\n    tag_7:\n      tag_39\n      0x04\n      dup1\n      calldatasize\n      sub\n      dup2\n      add\n      swap1\n      tag_40\n      swap2\n      swap1\n      tag_41\n      jump\t// in\n    tag_40:\n      tag_42\n      jump\t// in\n    tag_39:\n      stop\n        /* \"SimpleStorage.sol\":1592:1758  function callInternalFunction() public pure returns (string memory) {... */\n    tag_8:\n      tag_43\n      tag_44\n      jump\t// in\n    tag_43:\n      mload(0x40)\n      tag_45\n      swap2\n      swap1\n      tag_38\n      jump\t// in\n    tag_45:\n      mload(0x40)\n      dup1\n      swap2\n      sub\n      swap1\n      return\n        /* \"SimpleStorage.sol\":2483:2563  function activateContract() public {... */\n    tag_9:\n      tag_46\n      tag_47\n      jump\t// in\n    tag_46:\n      stop\n        /* \"SimpleStorage.sol\":2236:2339  function returnNumbers() public view returns (uint256[] memory) {... */\n    tag_10:\n      tag_48\n      tag_49\n      jump\t// in\n    tag_48:\n      mload(0x40)\n      tag_50\n      swap2\n      swap1\n      tag_51\n      jump\t// in\n    tag_50:\n      mload(0x40)\n      dup1\n      swap2\n      sub\n      swap1\n      return\n        /* \"SimpleStorage.sol\":372:394  Person[] public people */\n    tag_11:\n      tag_52\n      0x04\n      dup1\n      calldatasize\n      sub\n      dup2\n      add\n      swap1\n      tag_53\n      swap2\n      swap1\n      tag_32\n      jump\t// in\n    tag_53:\n      tag_54\n      jump\t// in\n    tag_52:\n      mload(0x40)\n      tag_55\n      swap3\n      swap2\n      swap1\n      tag_56\n      jump\t// in\n    tag_55:\n      mload(0x40)\n      dup1\n      swap2\n      sub\n      swap1\n      return\n        /* \"SimpleStorage.sol\":803:900  function getFavoriteNumber() public view returns (uint256) {... */\n    tag_12:\n      tag_57\n      tag_58\n      jump\t// in\n    tag_57:\n      mload(0x40)\n      tag_59\n      swap2\n      swap1\n      tag_25\n      jump\t// in\n    tag_59:\n      mload(0x40)\n      dup1\n      swap2\n      sub\n      swap1\n      return\n        /* \"SimpleStorage.sol\":2133:2230  function addFavoriteNumber(uint256 _number) public {... */\n    tag_13:\n      tag_60\n      0x04\n      dup1\n      calldatasize\n      sub\n      dup2\n      add\n      swap1\n      tag_61\n      swap2\n      swap1\n      tag_32\n      jump\t// in\n    tag_61:\n      tag_62\n      jump\t// in\n    tag_60:\n      stop\n        /* \"SimpleStorage.sol\":695:797  function storeNumber(uint256 _favoriteNumber) public {... */\n    tag_14:\n      tag_63\n      0x04\n      dup1\n      calldatasize\n      sub\n      dup2\n      add\n      swap1\n      tag_64\n      swap2\n      swap1\n      tag_32\n      jump\t// in\n    tag_64:\n      tag_65\n      jump\t// in\n    tag_63:\n      stop\n        /* \"SimpleStorage.sol\":2569:2653  function deactivateContract() public {... */\n    tag_15:\n      tag_66\n      tag_67\n      jump\t// in\n    tag_66:\n      stop\n        /* \"SimpleStorage.sol\":608:634  ContractState public state */\n    tag_16:\n      tag_68\n      tag_69\n      jump\t// in\n    tag_68:\n      mload(0x40)\n      tag_70\n      swap2\n      swap1\n      tag_71\n      jump\t// in\n    tag_70:\n      mload(0x40)\n      dup1\n      swap2\n      sub\n      swap1\n      return\n        /* \"SimpleStorage.sol\":906:1110  function isGreaterThan(uint256 _compareValue) public view returns (bool) {... */\n    tag_17:\n      tag_72\n      0x04\n      dup1\n      calldatasize\n      sub\n      dup2\n      add\n      swap1\n      tag_73\n      swap2\n      swap1\n      tag_32\n      jump\t// in\n    tag_73:\n      tag_74\n      jump\t// in\n    tag_72:\n      mload(0x40)\n      tag_75\n      swap2\n      swap1\n      tag_29\n      jump\t// in\n    tag_75:\n      mload(0x40)\n      dup1\n      swap2\n      sub\n      swap1\n      return\n        /* \"SimpleStorage.sol\":1948:2127  function testExternalFunction() public view returns (string memory) {... */\n    tag_18:\n      tag_76\n      tag_77\n      jump\t// in\n    tag_76:\n      mload(0x40)\n      tag_78\n      swap2\n      swap1\n      tag_38\n      jump\t// in\n    tag_78:\n      mload(0x40)\n      dup1\n      swap2\n      sub\n      swap1\n      return\n        /* \"SimpleStorage.sol\":1116:1317  function sumToFavoriteNumber() public view returns (uint256) {... */\n    tag_23:\n        /* \"SimpleStorage.sol\":1168:1175  uint256 */\n      0x00\n        /* \"SimpleStorage.sol\":1187:1198  uint256 sum */\n      dup1\n        /* \"SimpleStorage.sol\":1201:1202  0 */\n      0x00\n        /* \"SimpleStorage.sol\":1187:1202  uint256 sum = 0 */\n      swap1\n      pop\n        /* \"SimpleStorage.sol\":1217:1226  uint256 i */\n      0x00\n        /* \"SimpleStorage.sol\":1229:1230  1 */\n      0x01\n        /* \"SimpleStorage.sol\":1217:1230  uint256 i = 1 */\n      swap1\n      pop\n        /* \"SimpleStorage.sol\":1212:1291  for (uint256 i = 1; i <= favoriteNumber; i++) {... */\n    tag_80:\n        /* \"SimpleStorage.sol\":1237:1251  favoriteNumber */\n      sload(0x00)\n        /* \"SimpleStorage.sol\":1232:1233  i */\n      dup2\n        /* \"SimpleStorage.sol\":1232:1251  i <= favoriteNumber */\n      gt\n        /* \"SimpleStorage.sol\":1212:1291  for (uint256 i = 1; i <= favoriteNumber; i++) {... */\n      tag_81\n      jumpi\n        /* \"SimpleStorage.sol\":1279:1280  i */\n      dup1\n        /* \"SimpleStorage.sol\":1272:1280  sum += i */\n      dup3\n      tag_83\n      swap2\n      swap1\n      tag_84\n      jump\t// in\n    tag_83:\n      swap2\n      pop\n        /* \"SimpleStorage.sol\":1253:1256  i++ */\n      dup1\n      dup1\n      tag_85\n      swap1\n      tag_86\n      jump\t// in\n    tag_85:\n      swap2\n      pop\n      pop\n        /* \"SimpleStorage.sol\":1212:1291  for (uint256 i = 1; i <= favoriteNumber; i++) {... */\n      jump(tag_80)\n    tag_81:\n      pop\n        /* \"SimpleStorage.sol\":1307:1310  sum */\n      dup1\n        /* \"SimpleStorage.sol\":1300:1310  return sum */\n      swap2\n      pop\n      pop\n        /* \"SimpleStorage.sol\":1116:1317  function sumToFavoriteNumber() public view returns (uint256) {... */\n      swap1\n      jump\t// out\n        /* \"SimpleStorage.sol\":2659:2759  function isActive() public view returns (bool) {... */\n    tag_27:\n        /* \"SimpleStorage.sol\":2700:2704  bool */\n      0x00\n        /* \"SimpleStorage.sol\":2732:2752  ContractState.Active */\n      dup1\n        /* \"SimpleStorage.sol\":2723:2752  state == ContractState.Active */\n      0x01\n      dup2\n      gt\n      iszero\n      tag_88\n      jumpi\n      tag_89\n      tag_90\n      jump\t// in\n    tag_89:\n    tag_88:\n        /* \"SimpleStorage.sol\":2723:2728  state */\n      0x03\n      0x00\n      swap1\n      sload\n      swap1\n      0x0100\n      exp\n      swap1\n      div\n      0xff\n      and\n        /* \"SimpleStorage.sol\":2723:2752  state == ContractState.Active */\n      0x01\n      dup2\n      gt\n      iszero\n      tag_91\n      jumpi\n      tag_92\n      tag_90\n      jump\t// in\n    tag_92:\n    tag_91:\n      eq\n        /* \"SimpleStorage.sol\":2716:2752  return state == ContractState.Active */\n      swap1\n      pop\n        /* \"SimpleStorage.sol\":2659:2759  function isActive() public view returns (bool) {... */\n      swap1\n      jump\t// out\n        /* \"SimpleStorage.sol\":160:192  uint256[] public favoriteNumbers */\n    tag_33:\n      0x01\n      dup2\n      dup2\n      sload\n      dup2\n      lt\n      tag_93\n      jumpi\n      0x00\n      dup1\n      revert\n    tag_93:\n      swap1\n      0x00\n      mstore\n      keccak256(0x00, 0x20)\n      add\n      0x00\n      swap2\n      pop\n      swap1\n      pop\n      sload\n      dup2\n      jump\t// out\n        /* \"SimpleStorage.sol\":1764:1942  function externalFunction() external pure returns (string memory) {... */\n    tag_36:\n        /* \"SimpleStorage.sol\":1815:1828  string memory */\n      0x60\n        /* \"SimpleStorage.sol\":1840:1877  return \"This is an external function\" */\n      mload(0x40)\n      dup1\n      0x40\n      add\n      0x40\n      mstore\n      dup1\n      0x1c\n      dup2\n      mstore\n      0x20\n      add\n      0x5468697320697320616e2065787465726e616c2066756e6374696f6e00000000\n      dup2\n      mstore\n      pop\n      swap1\n      pop\n        /* \"SimpleStorage.sol\":1764:1942  function externalFunction() external pure returns (string memory) {... */\n      swap1\n      jump\t// out\n        /* \"SimpleStorage.sol\":2345:2477  function addPerson(string memory _name, uint256 _favoriteNumber) public {... */\n    tag_42:\n        /* \"SimpleStorage.sol\":2427:2433  people */\n      0x02\n        /* \"SimpleStorage.sol\":2439:2469  Person(_name, _favoriteNumber) */\n      mload(0x40)\n      dup1\n      0x40\n      add\n      0x40\n      mstore\n      dup1\n        /* \"SimpleStorage.sol\":2446:2451  _name */\n      dup5\n        /* \"SimpleStorage.sol\":2439:2469  Person(_name, _favoriteNumber) */\n      dup2\n      mstore\n      0x20\n      add\n        /* \"SimpleStorage.sol\":2453:2468  _favoriteNumber */\n      dup4\n        /* \"SimpleStorage.sol\":2439:2469  Person(_name, _favoriteNumber) */\n      dup2\n      mstore\n      pop\n        /* \"SimpleStorage.sol\":2427:2470  people.push(Person(_name, _favoriteNumber)) */\n      swap1\n      dup1\n      0x01\n      dup2\n      sload\n      add\n      dup1\n      dup3\n      sstore\n      dup1\n      swap2\n      pop\n      pop\n      0x01\n      swap1\n      sub\n      swap1\n      0x00\n      mstore\n      keccak256(0x00, 0x20)\n      swap1\n      0x02\n      mul\n      add\n      0x00\n      swap1\n      swap2\n      swap1\n      swap2\n      swap1\n      swap2\n      pop\n      0x00\n      dup3\n      add\n      mload\n      dup2\n      0x00\n      add\n      swap1\n      dup2\n      tag_98\n      swap2\n      swap1\n      tag_99\n      jump\t// in\n    tag_98:\n      pop\n      0x20\n      dup3\n      add\n      mload\n      dup2\n      0x01\n      add\n      sstore\n      pop\n      pop\n        /* \"SimpleStorage.sol\":2345:2477  function addPerson(string memory _name, uint256 _favoriteNumber) public {... */\n      pop\n      pop\n      jump\t// out\n        /* \"SimpleStorage.sol\":1592:1758  function callInternalFunction() public pure returns (string memory) {... */\n    tag_44:\n        /* \"SimpleStorage.sol\":1645:1658  string memory */\n      0x60\n        /* \"SimpleStorage.sol\":1677:1695  internalFunction() */\n      tag_101\n        /* \"SimpleStorage.sol\":1677:1693  internalFunction */\n      tag_102\n        /* \"SimpleStorage.sol\":1677:1695  internalFunction() */\n      jump\t// in\n    tag_101:\n        /* \"SimpleStorage.sol\":1670:1695  return internalFunction() */\n      swap1\n      pop\n        /* \"SimpleStorage.sol\":1592:1758  function callInternalFunction() public pure returns (string memory) {... */\n      swap1\n      jump\t// out\n        /* \"SimpleStorage.sol\":2483:2563  function activateContract() public {... */\n    tag_47:\n        /* \"SimpleStorage.sol\":2536:2556  ContractState.Active */\n      0x00\n        /* \"SimpleStorage.sol\":2528:2533  state */\n      0x03\n      0x00\n        /* \"SimpleStorage.sol\":2528:2556  state = ContractState.Active */\n      0x0100\n      exp\n      dup2\n      sload\n      dup2\n      0xff\n      mul\n      not\n      and\n      swap1\n      dup4\n      0x01\n      dup2\n      gt\n      iszero\n      tag_104\n      jumpi\n      tag_105\n      tag_90\n      jump\t// in\n    tag_105:\n    tag_104:\n      mul\n      or\n      swap1\n      sstore\n      pop\n        /* \"SimpleStorage.sol\":2483:2563  function activateContract() public {... */\n      jump\t// out\n        /* \"SimpleStorage.sol\":2236:2339  function returnNumbers() public view returns (uint256[] memory) {... */\n    tag_49:\n        /* \"SimpleStorage.sol\":2282:2298  uint256[] memory */\n      0x60\n        /* \"SimpleStorage.sol\":2317:2332  favoriteNumbers */\n      0x01\n        /* \"SimpleStorage.sol\":2310:2332  return favoriteNumbers */\n      dup1\n      sload\n      dup1\n      0x20\n      mul\n      0x20\n      add\n      mload(0x40)\n      swap1\n      dup2\n      add\n      0x40\n      mstore\n      dup1\n      swap3\n      swap2\n      swap1\n      dup2\n      dup2\n      mstore\n      0x20\n      add\n      dup3\n      dup1\n      sload\n      dup1\n      iszero\n      tag_107\n      jumpi\n      0x20\n      mul\n      dup3\n      add\n      swap2\n      swap1\n      0x00\n      mstore\n      keccak256(0x00, 0x20)\n      swap1\n    tag_108:\n      dup2\n      sload\n      dup2\n      mstore\n      0x20\n      add\n      swap1\n      0x01\n      add\n      swap1\n      dup1\n      dup4\n      gt\n      tag_108\n      jumpi\n    tag_107:\n      pop\n      pop\n      pop\n      pop\n      pop\n      swap1\n      pop\n        /* \"SimpleStorage.sol\":2236:2339  function returnNumbers() public view returns (uint256[] memory) {... */\n      swap1\n      jump\t// out\n        /* \"SimpleStorage.sol\":372:394  Person[] public people */\n    tag_54:\n      0x02\n      dup2\n      dup2\n      sload\n      dup2\n      lt\n      tag_109\n      jumpi\n      0x00\n      dup1\n      revert\n    tag_109:\n      swap1\n      0x00\n      mstore\n      keccak256(0x00, 0x20)\n      swap1\n      0x02\n      mul\n      add\n      0x00\n      swap2\n      pop\n      swap1\n      pop\n      dup1\n      0x00\n      add\n      dup1\n      sload\n      tag_111\n      swap1\n      tag_112\n      jump\t// in\n    tag_111:\n      dup1\n      0x1f\n      add\n      0x20\n      dup1\n      swap2\n      div\n      mul\n      0x20\n      add\n      mload(0x40)\n      swap1\n      dup2\n      add\n      0x40\n      mstore\n      dup1\n      swap3\n      swap2\n      swap1\n      dup2\n      dup2\n      mstore\n      0x20\n      add\n      dup3\n      dup1\n      sload\n      tag_113\n      swap1\n      tag_112\n      jump\t// in\n    tag_113:\n      dup1\n      iszero\n      tag_114\n      jumpi\n      dup1\n      0x1f\n      lt\n      tag_115\n      jumpi\n      0x0100\n      dup1\n      dup4\n      sload\n      div\n      mul\n      dup4\n      mstore\n      swap2\n      0x20\n      add\n      swap2\n      jump(tag_114)\n    tag_115:\n      dup3\n      add\n      swap2\n      swap1\n      0x00\n      mstore\n      keccak256(0x00, 0x20)\n      swap1\n    tag_116:\n      dup2\n      sload\n      dup2\n      mstore\n      swap1\n      0x01\n      add\n      swap1\n      0x20\n      add\n      dup1\n      dup4\n      gt\n      tag_116\n      jumpi\n      dup3\n      swap1\n      sub\n      0x1f\n      and\n      dup3\n      add\n      swap2\n    tag_114:\n      pop\n      pop\n      pop\n      pop\n      pop\n      swap1\n      dup1\n      0x01\n      add\n      sload\n      swap1\n      pop\n      dup3\n      jump\t// out\n        /* \"SimpleStorage.sol\":803:900  function getFavoriteNumber() public view returns (uint256) {... */\n    tag_58:\n        /* \"SimpleStorage.sol\":853:860  uint256 */\n      0x00\n        /* \"SimpleStorage.sol\":879:893  favoriteNumber */\n      dup1\n      sload\n        /* \"SimpleStorage.sol\":872:893  return favoriteNumber */\n      swap1\n      pop\n        /* \"SimpleStorage.sol\":803:900  function getFavoriteNumber() public view returns (uint256) {... */\n      swap1\n      jump\t// out\n        /* \"SimpleStorage.sol\":2133:2230  function addFavoriteNumber(uint256 _number) public {... */\n    tag_62:\n        /* \"SimpleStorage.sol\":2194:2209  favoriteNumbers */\n      0x01\n        /* \"SimpleStorage.sol\":2215:2222  _number */\n      dup2\n        /* \"SimpleStorage.sol\":2194:2223  favoriteNumbers.push(_number) */\n      swap1\n      dup1\n      0x01\n      dup2\n      sload\n      add\n      dup1\n      dup3\n      sstore\n      dup1\n      swap2\n      pop\n      pop\n      0x01\n      swap1\n      sub\n      swap1\n      0x00\n      mstore\n      keccak256(0x00, 0x20)\n      add\n      0x00\n      swap1\n      swap2\n      swap1\n      swap2\n      swap1\n      swap2\n      pop\n      sstore\n        /* \"SimpleStorage.sol\":2133:2230  function addFavoriteNumber(uint256 _number) public {... */\n      pop\n      jump\t// out\n        /* \"SimpleStorage.sol\":695:797  function storeNumber(uint256 _favoriteNumber) public {... */\n    tag_65:\n        /* \"SimpleStorage.sol\":775:790  _favoriteNumber */\n      dup1\n        /* \"SimpleStorage.sol\":758:772  favoriteNumber */\n      0x00\n        /* \"SimpleStorage.sol\":758:790  favoriteNumber = _favoriteNumber */\n      dup2\n      swap1\n      sstore\n      pop\n        /* \"SimpleStorage.sol\":695:797  function storeNumber(uint256 _favoriteNumber) public {... */\n      pop\n      jump\t// out\n        /* \"SimpleStorage.sol\":2569:2653  function deactivateContract() public {... */\n    tag_67:\n        /* \"SimpleStorage.sol\":2624:2646  ContractState.Inactive */\n      0x01\n        /* \"SimpleStorage.sol\":2616:2621  state */\n      0x03\n      0x00\n        /* \"SimpleStorage.sol\":2616:2646  state = ContractState.Inactive */\n      0x0100\n      exp\n      dup2\n      sload\n      dup2\n      0xff\n      mul\n      not\n      and\n      swap1\n      dup4\n      0x01\n      dup2\n      gt\n      iszero\n      tag_122\n      jumpi\n      tag_123\n      tag_90\n      jump\t// in\n    tag_123:\n    tag_122:\n      mul\n      or\n      swap1\n      sstore\n      pop\n        /* \"SimpleStorage.sol\":2569:2653  function deactivateContract() public {... */\n      jump\t// out\n        /* \"SimpleStorage.sol\":608:634  ContractState public state */\n    tag_69:\n      0x03\n      0x00\n      swap1\n      sload\n      swap1\n      0x0100\n      exp\n      swap1\n      div\n      0xff\n      and\n      dup2\n      jump\t// out\n        /* \"SimpleStorage.sol\":906:1110  function isGreaterThan(uint256 _compareValue) public view returns (bool) {... */\n    tag_74:\n        /* \"SimpleStorage.sol\":973:977  bool */\n      0x00\n        /* \"SimpleStorage.sol\":1010:1023  _compareValue */\n      dup2\n        /* \"SimpleStorage.sol\":993:1007  favoriteNumber */\n      sload(0x00)\n        /* \"SimpleStorage.sol\":993:1023  favoriteNumber > _compareValue */\n      gt\n        /* \"SimpleStorage.sol\":989:1104  if (favoriteNumber > _compareValue) {... */\n      iszero\n      tag_125\n      jumpi\n        /* \"SimpleStorage.sol\":1046:1050  true */\n      0x01\n        /* \"SimpleStorage.sol\":1039:1050  return true */\n      swap1\n      pop\n      jump(tag_124)\n        /* \"SimpleStorage.sol\":989:1104  if (favoriteNumber > _compareValue) {... */\n    tag_125:\n        /* \"SimpleStorage.sol\":1088:1093  false */\n      0x00\n        /* \"SimpleStorage.sol\":1081:1093  return false */\n      swap1\n      pop\n        /* \"SimpleStorage.sol\":906:1110  function isGreaterThan(uint256 _compareValue) public view returns (bool) {... */\n    tag_124:\n      swap2\n      swap1\n      pop\n      jump\t// out\n        /* \"SimpleStorage.sol\":1948:2127  function testExternalFunction() public view returns (string memory) {... */\n    tag_77:\n        /* \"SimpleStorage.sol\":2001:2014  string memory */\n      0x60\n        /* \"SimpleStorage.sol\":2033:2037  this */\n      address\n        /* \"SimpleStorage.sol\":2033:2054  this.externalFunction */\n      0xffffffffffffffffffffffffffffffffffffffff\n      and\n      0x3a32b549\n        /* \"SimpleStorage.sol\":2033:2056  this.externalFunction() */\n      mload(0x40)\n      dup2\n      0xffffffff\n      and\n      0xe0\n      shl\n      dup2\n      mstore\n      0x04\n      add\n      0x00\n      mload(0x40)\n      dup1\n      dup4\n      sub\n      dup2\n      dup7\n      gas\n      staticcall\n      iszero\n      dup1\n      iszero\n      tag_129\n      jumpi\n      returndatasize\n      0x00\n      dup1\n      returndatacopy\n      revert(0x00, returndatasize)\n    tag_129:\n      pop\n      pop\n      pop\n      pop\n      mload(0x40)\n      returndatasize\n      0x00\n      dup3\n      returndatacopy\n      returndatasize\n      not(0x1f)\n      0x1f\n      dup3\n      add\n      and\n      dup3\n      add\n      dup1\n      0x40\n      mstore\n      pop\n      dup2\n      add\n      swap1\n      tag_130\n      swap2\n      swap1\n      tag_131\n      jump\t// in\n    tag_130:\n        /* \"SimpleStorage.sol\":2026:2056  return this.externalFunction() */\n      swap1\n      pop\n        /* \"SimpleStorage.sol\":1948:2127  function testExternalFunction() public view returns (string memory) {... */\n      swap1\n      jump\t// out\n        /* \"SimpleStorage.sol\":1323:1514  function internalFunction() internal pure returns (string memory) {... */\n    tag_102:\n        /* \"SimpleStorage.sol\":1374:1387  string memory */\n      0x60\n        /* \"SimpleStorage.sol\":1399:1436  return \"This is an internal function\" */\n      mload(0x40)\n      dup1\n      0x40\n      add\n      0x40\n      mstore\n      dup1\n      0x1c\n      dup2\n      mstore\n      0x20\n      add\n      0x5468697320697320616e20696e7465726e616c2066756e6374696f6e00000000\n      dup2\n      mstore\n      pop\n      swap1\n      pop\n        /* \"SimpleStorage.sol\":1323:1514  function internalFunction() internal pure returns (string memory) {... */\n      swap1\n      jump\t// out\n        /* \"#utility.yul\":7:84   */\n    tag_133:\n        /* \"#utility.yul\":44:51   */\n      0x00\n        /* \"#utility.yul\":73:78   */\n      dup2\n        /* \"#utility.yul\":62:78   */\n      swap1\n      pop\n        /* \"#utility.yul\":7:84   */\n      swap2\n      swap1\n      pop\n      jump\t// out\n        /* \"#utility.yul\":90:208   */\n    tag_134:\n        /* \"#utility.yul\":177:201   */\n      tag_189\n        /* \"#utility.yul\":195:200   */\n      dup2\n        /* \"#utility.yul\":177:201   */\n      tag_133\n      jump\t// in\n    tag_189:\n        /* \"#utility.yul\":172:175   */\n      dup3\n        /* \"#utility.yul\":165:202   */\n      mstore\n        /* \"#utility.yul\":90:208   */\n      pop\n      pop\n      jump\t// out\n        /* \"#utility.yul\":214:436   */\n    tag_25:\n        /* \"#utility.yul\":307:311   */\n      0x00\n        /* \"#utility.yul\":345:347   */\n      0x20\n        /* \"#utility.yul\":334:343   */\n      dup3\n        /* \"#utility.yul\":330:348   */\n      add\n        /* \"#utility.yul\":322:348   */\n      swap1\n      pop\n        /* \"#utility.yul\":358:429   */\n      tag_191\n        /* \"#utility.yul\":426:427   */\n      0x00\n        /* \"#utility.yul\":415:424   */\n      dup4\n        /* \"#utility.yul\":411:428   */\n      add\n        /* \"#utility.yul\":402:408   */\n      dup5\n        /* \"#utility.yul\":358:429   */\n      tag_134\n      jump\t// in\n    tag_191:\n        /* \"#utility.yul\":214:436   */\n      swap3\n      swap2\n      pop\n      pop\n      jump\t// out\n        /* \"#utility.yul\":442:532   */\n    tag_135:\n        /* \"#utility.yul\":476:483   */\n      0x00\n        /* \"#utility.yul\":519:524   */\n      dup2\n        /* \"#utility.yul\":512:525   */\n      iszero\n        /* \"#utility.yul\":505:526   */\n      iszero\n        /* \"#utility.yul\":494:526   */\n      swap1\n      pop\n        /* \"#utility.yul\":442:532   */\n      swap2\n      swap1\n      pop\n      jump\t// out\n        /* \"#utility.yul\":538:647   */\n    tag_136:\n        /* \"#utility.yul\":619:640   */\n      tag_194\n        /* \"#utility.yul\":634:639   */\n      dup2\n        /* \"#utility.yul\":619:640   */\n      tag_135\n      jump\t// in\n    tag_194:\n        /* \"#utility.yul\":614:617   */\n      dup3\n        /* \"#utility.yul\":607:641   */\n      mstore\n        /* \"#utility.yul\":538:647   */\n      pop\n      pop\n      jump\t// out\n        /* \"#utility.yul\":653:863   */\n    tag_29:\n        /* \"#utility.yul\":740:744   */\n      0x00\n        /* \"#utility.yul\":778:780   */\n      0x20\n        /* \"#utility.yul\":767:776   */\n      dup3\n        /* \"#utility.yul\":763:781   */\n      add\n        /* \"#utility.yul\":755:781   */\n      swap1\n      pop\n        /* \"#utility.yul\":791:856   */\n      tag_196\n        /* \"#utility.yul\":853:854   */\n      0x00\n        /* \"#utility.yul\":842:851   */\n      dup4\n        /* \"#utility.yul\":838:855   */\n      add\n        /* \"#utility.yul\":829:835   */\n      dup5\n        /* \"#utility.yul\":791:856   */\n      tag_136\n      jump\t// in\n    tag_196:\n        /* \"#utility.yul\":653:863   */\n      swap3\n      swap2\n      pop\n      pop\n      jump\t// out\n        /* \"#utility.yul\":869:944   */\n    tag_137:\n        /* \"#utility.yul\":902:908   */\n      0x00\n        /* \"#utility.yul\":935:937   */\n      0x40\n        /* \"#utility.yul\":929:938   */\n      mload\n        /* \"#utility.yul\":919:938   */\n      swap1\n      pop\n        /* \"#utility.yul\":869:944   */\n      swap1\n      jump\t// out\n        /* \"#utility.yul\":950:1067   */\n    tag_138:\n        /* \"#utility.yul\":1059:1060   */\n      0x00\n        /* \"#utility.yul\":1056:1057   */\n      dup1\n        /* \"#utility.yul\":1049:1061   */\n      revert\n        /* \"#utility.yul\":1073:1190   */\n    tag_139:\n        /* \"#utility.yul\":1182:1183   */\n      0x00\n        /* \"#utility.yul\":1179:1180   */\n      dup1\n        /* \"#utility.yul\":1172:1184   */\n      revert\n        /* \"#utility.yul\":1196:1318   */\n    tag_140:\n        /* \"#utility.yul\":1269:1293   */\n      tag_201\n        /* \"#utility.yul\":1287:1292   */\n      dup2\n        /* \"#utility.yul\":1269:1293   */\n      tag_133\n      jump\t// in\n    tag_201:\n        /* \"#utility.yul\":1262:1267   */\n      dup2\n        /* \"#utility.yul\":1259:1294   */\n      eq\n        /* \"#utility.yul\":1249:1312   */\n      tag_202\n      jumpi\n        /* \"#utility.yul\":1308:1309   */\n      0x00\n        /* \"#utility.yul\":1305:1306   */\n      dup1\n        /* \"#utility.yul\":1298:1310   */\n      revert\n        /* \"#utility.yul\":1249:1312   */\n    tag_202:\n        /* \"#utility.yul\":1196:1318   */\n      pop\n      jump\t// out\n        /* \"#utility.yul\":1324:1463   */\n    tag_141:\n        /* \"#utility.yul\":1370:1375   */\n      0x00\n        /* \"#utility.yul\":1408:1414   */\n      dup2\n        /* \"#utility.yul\":1395:1415   */\n      calldataload\n        /* \"#utility.yul\":1386:1415   */\n      swap1\n      pop\n        /* \"#utility.yul\":1424:1457   */\n      tag_204\n        /* \"#utility.yul\":1451:1456   */\n      dup2\n        /* \"#utility.yul\":1424:1457   */\n      tag_140\n      jump\t// in\n    tag_204:\n        /* \"#utility.yul\":1324:1463   */\n      swap3\n      swap2\n      pop\n      pop\n      jump\t// out\n        /* \"#utility.yul\":1469:1798   */\n    tag_32:\n        /* \"#utility.yul\":1528:1534   */\n      0x00\n        /* \"#utility.yul\":1577:1579   */\n      0x20\n        /* \"#utility.yul\":1565:1574   */\n      dup3\n        /* \"#utility.yul\":1556:1563   */\n      dup5\n        /* \"#utility.yul\":1552:1575   */\n      sub\n        /* \"#utility.yul\":1548:1580   */\n      slt\n        /* \"#utility.yul\":1545:1664   */\n      iszero\n      tag_206\n      jumpi\n        /* \"#utility.yul\":1583:1662   */\n      tag_207\n      tag_138\n      jump\t// in\n    tag_207:\n        /* \"#utility.yul\":1545:1664   */\n    tag_206:\n        /* \"#utility.yul\":1703:1704   */\n      0x00\n        /* \"#utility.yul\":1728:1781   */\n      tag_208\n        /* \"#utility.yul\":1773:1780   */\n      dup5\n        /* \"#utility.yul\":1764:1770   */\n      dup3\n        /* \"#utility.yul\":1753:1762   */\n      dup6\n        /* \"#utility.yul\":1749:1771   */\n      add\n        /* \"#utility.yul\":1728:1781   */\n      tag_141\n      jump\t// in\n    tag_208:\n        /* \"#utility.yul\":1718:1781   */\n      swap2\n      pop\n        /* \"#utility.yul\":1674:1791   */\n      pop\n        /* \"#utility.yul\":1469:1798   */\n      swap3\n      swap2\n      pop\n      pop\n      jump\t// out\n        /* \"#utility.yul\":1804:1903   */\n    tag_142:\n        /* \"#utility.yul\":1856:1862   */\n      0x00\n        /* \"#utility.yul\":1890:1895   */\n      dup2\n        /* \"#utility.yul\":1884:1896   */\n      mload\n        /* \"#utility.yul\":1874:1896   */\n      swap1\n      pop\n        /* \"#utility.yul\":1804:1903   */\n      swap2\n      swap1\n      pop\n      jump\t// out\n        /* \"#utility.yul\":1909:2078   */\n    tag_143:\n        /* \"#utility.yul\":1993:2004   */\n      0x00\n        /* \"#utility.yul\":2027:2033   */\n      dup3\n        /* \"#utility.yul\":2022:2025   */\n      dup3\n        /* \"#utility.yul\":2015:2034   */\n      mstore\n        /* \"#utility.yul\":2067:2071   */\n      0x20\n        /* \"#utility.yul\":2062:2065   */\n      dup3\n        /* \"#utility.yul\":2058:2072   */\n      add\n        /* \"#utility.yul\":2043:2072   */\n      swap1\n      pop\n        /* \"#utility.yul\":1909:2078   */\n      swap3\n      swap2\n      pop\n      pop\n      jump\t// out\n        /* \"#utility.yul\":2084:2223   */\n    tag_144:\n        /* \"#utility.yul\":2173:2179   */\n      dup3\n        /* \"#utility.yul\":2168:2171   */\n      dup2\n        /* \"#utility.yul\":2163:2166   */\n      dup4\n        /* \"#utility.yul\":2157:2180   */\n      mcopy\n        /* \"#utility.yul\":2214:2215   */\n      0x00\n        /* \"#utility.yul\":2205:2211   */\n      dup4\n        /* \"#utility.yul\":2200:2203   */\n      dup4\n        /* \"#utility.yul\":2196:2212   */\n      add\n        /* \"#utility.yul\":2189:2216   */\n      mstore\n        /* \"#utility.yul\":2084:2223   */\n      pop\n      pop\n      pop\n      jump\t// out\n        /* \"#utility.yul\":2229:2331   */\n    tag_145:\n        /* \"#utility.yul\":2270:2276   */\n      0x00\n        /* \"#utility.yul\":2321:2323   */\n      0x1f\n        /* \"#utility.yul\":2317:2324   */\n      not\n        /* \"#utility.yul\":2312:2314   */\n      0x1f\n        /* \"#utility.yul\":2305:2310   */\n      dup4\n        /* \"#utility.yul\":2301:2315   */\n      add\n        /* \"#utility.yul\":2297:2325   */\n      and\n        /* \"#utility.yul\":2287:2325   */\n      swap1\n      pop\n        /* \"#utility.yul\":2229:2331   */\n      swap2\n      swap1\n      pop\n      jump\t// out\n        /* \"#utility.yul\":2337:2714   */\n    tag_146:\n        /* \"#utility.yul\":2425:2428   */\n      0x00\n        /* \"#utility.yul\":2453:2492   */\n      tag_214\n        /* \"#utility.yul\":2486:2491   */\n      dup3\n        /* \"#utility.yul\":2453:2492   */\n      tag_142\n      jump\t// in\n    tag_214:\n        /* \"#utility.yul\":2508:2579   */\n      tag_215\n        /* \"#utility.yul\":2572:2578   */\n      dup2\n        /* \"#utility.yul\":2567:2570   */\n      dup6\n        /* \"#utility.yul\":2508:2579   */\n      tag_143\n      jump\t// in\n    tag_215:\n        /* \"#utility.yul\":2501:2579   */\n      swap4\n      pop\n        /* \"#utility.yul\":2588:2653   */\n      tag_216\n        /* \"#utility.yul\":2646:2652   */\n      dup2\n        /* \"#utility.yul\":2641:2644   */\n      dup6\n        /* \"#utility.yul\":2634:2638   */\n      0x20\n        /* \"#utility.yul\":2627:2632   */\n      dup7\n        /* \"#utility.yul\":2623:2639   */\n      add\n        /* \"#utility.yul\":2588:2653   */\n      tag_144\n      jump\t// in\n    tag_216:\n        /* \"#utility.yul\":2678:2707   */\n      tag_217\n        /* \"#utility.yul\":2700:2706   */\n      dup2\n        /* \"#utility.yul\":2678:2707   */\n      tag_145\n      jump\t// in\n    tag_217:\n        /* \"#utility.yul\":2673:2676   */\n      dup5\n        /* \"#utility.yul\":2669:2708   */\n      add\n        /* \"#utility.yul\":2662:2708   */\n      swap2\n      pop\n        /* \"#utility.yul\":2429:2714   */\n      pop\n        /* \"#utility.yul\":2337:2714   */\n      swap3\n      swap2\n      pop\n      pop\n      jump\t// out\n        /* \"#utility.yul\":2720:3033   */\n    tag_38:\n        /* \"#utility.yul\":2833:2837   */\n      0x00\n        /* \"#utility.yul\":2871:2873   */\n      0x20\n        /* \"#utility.yul\":2860:2869   */\n      dup3\n        /* \"#utility.yul\":2856:2874   */\n      add\n        /* \"#utility.yul\":2848:2874   */\n      swap1\n      pop\n        /* \"#utility.yul\":2920:2929   */\n      dup2\n        /* \"#utility.yul\":2914:2918   */\n      dup2\n        /* \"#utility.yul\":2910:2930   */\n      sub\n        /* \"#utility.yul\":2906:2907   */\n      0x00\n        /* \"#utility.yul\":2895:2904   */\n      dup4\n        /* \"#utility.yul\":2891:2908   */\n      add\n        /* \"#utility.yul\":2884:2931   */\n      mstore\n        /* \"#utility.yul\":2948:3026   */\n      tag_219\n        /* \"#utility.yul\":3021:3025   */\n      dup2\n        /* \"#utility.yul\":3012:3018   */\n      dup5\n        /* \"#utility.yul\":2948:3026   */\n      tag_146\n      jump\t// in\n    tag_219:\n        /* \"#utility.yul\":2940:3026   */\n      swap1\n      pop\n        /* \"#utility.yul\":2720:3033   */\n      swap3\n      swap2\n      pop\n      pop\n      jump\t// out\n        /* \"#utility.yul\":3039:3156   */\n    tag_147:\n        /* \"#utility.yul\":3148:3149   */\n      0x00\n        /* \"#utility.yul\":3145:3146   */\n      dup1\n        /* \"#utility.yul\":3138:3150   */\n      revert\n        /* \"#utility.yul\":3162:3279   */\n    tag_148:\n        /* \"#utility.yul\":3271:3272   */\n      0x00\n        /* \"#utility.yul\":3268:3269   */\n      dup1\n        /* \"#utility.yul\":3261:3273   */\n      revert\n        /* \"#utility.yul\":3285:3465   */\n    tag_149:\n        /* \"#utility.yul\":3333:3410   */\n      0x4e487b7100000000000000000000000000000000000000000000000000000000\n        /* \"#utility.yul\":3330:3331   */\n      0x00\n        /* \"#utility.yul\":3323:3411   */\n      mstore\n        /* \"#utility.yul\":3430:3434   */\n      0x41\n        /* \"#utility.yul\":3427:3428   */\n      0x04\n        /* \"#utility.yul\":3420:3435   */\n      mstore\n        /* \"#utility.yul\":3454:3458   */\n      0x24\n        /* \"#utility.yul\":3451:3452   */\n      0x00\n        /* \"#utility.yul\":3444:3459   */\n      revert\n        /* \"#utility.yul\":3471:3752   */\n    tag_150:\n        /* \"#utility.yul\":3554:3581   */\n      tag_224\n        /* \"#utility.yul\":3576:3580   */\n      dup3\n        /* \"#utility.yul\":3554:3581   */\n      tag_145\n      jump\t// in\n    tag_224:\n        /* \"#utility.yul\":3546:3552   */\n      dup2\n        /* \"#utility.yul\":3542:3582   */\n      add\n        /* \"#utility.yul\":3684:3690   */\n      dup2\n        /* \"#utility.yul\":3672:3682   */\n      dup2\n        /* \"#utility.yul\":3669:3691   */\n      lt\n        /* \"#utility.yul\":3648:3666   */\n      0xffffffffffffffff\n        /* \"#utility.yul\":3636:3646   */\n      dup3\n        /* \"#utility.yul\":3633:3667   */\n      gt\n        /* \"#utility.yul\":3630:3692   */\n      or\n        /* \"#utility.yul\":3627:3715   */\n      iszero\n      tag_225\n      jumpi\n        /* \"#utility.yul\":3695:3713   */\n      tag_226\n      tag_149\n      jump\t// in\n    tag_226:\n        /* \"#utility.yul\":3627:3715   */\n    tag_225:\n        /* \"#utility.yul\":3735:3745   */\n      dup1\n        /* \"#utility.yul\":3731:3733   */\n      0x40\n        /* \"#utility.yul\":3724:3746   */\n      mstore\n        /* \"#utility.yul\":3514:3752   */\n      pop\n        /* \"#utility.yul\":3471:3752   */\n      pop\n      pop\n      jump\t// out\n        /* \"#utility.yul\":3758:3887   */\n    tag_151:\n        /* \"#utility.yul\":3792:3798   */\n      0x00\n        /* \"#utility.yul\":3819:3839   */\n      tag_228\n      tag_137\n      jump\t// in\n    tag_228:\n        /* \"#utility.yul\":3809:3839   */\n      swap1\n      pop\n        /* \"#utility.yul\":3848:3881   */\n      tag_229\n        /* \"#utility.yul\":3876:3880   */\n      dup3\n        /* \"#utility.yul\":3868:3874   */\n      dup3\n        /* \"#utility.yul\":3848:3881   */\n      tag_150\n      jump\t// in\n    tag_229:\n        /* \"#utility.yul\":3758:3887   */\n      swap2\n      swap1\n      pop\n      jump\t// out\n        /* \"#utility.yul\":3893:4201   */\n    tag_152:\n        /* \"#utility.yul\":3955:3959   */\n      0x00\n        /* \"#utility.yul\":4045:4063   */\n      0xffffffffffffffff\n        /* \"#utility.yul\":4037:4043   */\n      dup3\n        /* \"#utility.yul\":4034:4064   */\n      gt\n        /* \"#utility.yul\":4031:4087   */\n      iszero\n      tag_231\n      jumpi\n        /* \"#utility.yul\":4067:4085   */\n      tag_232\n      tag_149\n      jump\t// in\n    tag_232:\n        /* \"#utility.yul\":4031:4087   */\n    tag_231:\n        /* \"#utility.yul\":4105:4134   */\n      tag_233\n        /* \"#utility.yul\":4127:4133   */\n      dup3\n        /* \"#utility.yul\":4105:4134   */\n      tag_145\n      jump\t// in\n    tag_233:\n        /* \"#utility.yul\":4097:4134   */\n      swap1\n      pop\n        /* \"#utility.yul\":4189:4193   */\n      0x20\n        /* \"#utility.yul\":4183:4187   */\n      dup2\n        /* \"#utility.yul\":4179:4194   */\n      add\n        /* \"#utility.yul\":4171:4194   */\n      swap1\n      pop\n        /* \"#utility.yul\":3893:4201   */\n      swap2\n      swap1\n      pop\n      jump\t// out\n        /* \"#utility.yul\":4207:4355   */\n    tag_153:\n        /* \"#utility.yul\":4305:4311   */\n      dup3\n        /* \"#utility.yul\":4300:4303   */\n      dup2\n        /* \"#utility.yul\":4295:4298   */\n      dup4\n        /* \"#utility.yul\":4282:4312   */\n      calldatacopy\n        /* \"#utility.yul\":4346:4347   */\n      0x00\n        /* \"#utility.yul\":4337:4343   */\n      dup4\n        /* \"#utility.yul\":4332:4335   */\n      dup4\n        /* \"#utility.yul\":4328:4344   */\n      add\n        /* \"#utility.yul\":4321:4348   */\n      mstore\n        /* \"#utility.yul\":4207:4355   */\n      pop\n      pop\n      pop\n      jump\t// out\n        /* \"#utility.yul\":4361:4786   */\n    tag_154:\n        /* \"#utility.yul\":4439:4444   */\n      0x00\n        /* \"#utility.yul\":4464:4530   */\n      tag_236\n        /* \"#utility.yul\":4480:4529   */\n      tag_237\n        /* \"#utility.yul\":4522:4528   */\n      dup5\n        /* \"#utility.yul\":4480:4529   */\n      tag_152\n      jump\t// in\n    tag_237:\n        /* \"#utility.yul\":4464:4530   */\n      tag_151\n      jump\t// in\n    tag_236:\n        /* \"#utility.yul\":4455:4530   */\n      swap1\n      pop\n        /* \"#utility.yul\":4553:4559   */\n      dup3\n        /* \"#utility.yul\":4546:4551   */\n      dup2\n        /* \"#utility.yul\":4539:4560   */\n      mstore\n        /* \"#utility.yul\":4591:4595   */\n      0x20\n        /* \"#utility.yul\":4584:4589   */\n      dup2\n        /* \"#utility.yul\":4580:4596   */\n      add\n        /* \"#utility.yul\":4629:4632   */\n      dup5\n        /* \"#utility.yul\":4620:4626   */\n      dup5\n        /* \"#utility.yul\":4615:4618   */\n      dup5\n        /* \"#utility.yul\":4611:4627   */\n      add\n        /* \"#utility.yul\":4608:4633   */\n      gt\n        /* \"#utility.yul\":4605:4717   */\n      iszero\n      tag_238\n      jumpi\n        /* \"#utility.yul\":4636:4715   */\n      tag_239\n      tag_148\n      jump\t// in\n    tag_239:\n        /* \"#utility.yul\":4605:4717   */\n    tag_238:\n        /* \"#utility.yul\":4726:4780   */\n      tag_240\n        /* \"#utility.yul\":4773:4779   */\n      dup5\n        /* \"#utility.yul\":4768:4771   */\n      dup3\n        /* \"#utility.yul\":4763:4766   */\n      dup6\n        /* \"#utility.yul\":4726:4780   */\n      tag_153\n      jump\t// in\n    tag_240:\n        /* \"#utility.yul\":4445:4786   */\n      pop\n        /* \"#utility.yul\":4361:4786   */\n      swap4\n      swap3\n      pop\n      pop\n      pop\n      jump\t// out\n        /* \"#utility.yul\":4806:5146   */\n    tag_155:\n        /* \"#utility.yul\":4862:4867   */\n      0x00\n        /* \"#utility.yul\":4911:4914   */\n      dup3\n        /* \"#utility.yul\":4904:4908   */\n      0x1f\n        /* \"#utility.yul\":4896:4902   */\n      dup4\n        /* \"#utility.yul\":4892:4909   */\n      add\n        /* \"#utility.yul\":4888:4915   */\n      slt\n        /* \"#utility.yul\":4878:5000   */\n      tag_242\n      jumpi\n        /* \"#utility.yul\":4919:4998   */\n      tag_243\n      tag_147\n      jump\t// in\n    tag_243:\n        /* \"#utility.yul\":4878:5000   */\n    tag_242:\n        /* \"#utility.yul\":5036:5042   */\n      dup2\n        /* \"#utility.yul\":5023:5043   */\n      calldataload\n        /* \"#utility.yul\":5061:5140   */\n      tag_244\n        /* \"#utility.yul\":5136:5139   */\n      dup5\n        /* \"#utility.yul\":5128:5134   */\n      dup3\n        /* \"#utility.yul\":5121:5125   */\n      0x20\n        /* \"#utility.yul\":5113:5119   */\n      dup7\n        /* \"#utility.yul\":5109:5126   */\n      add\n        /* \"#utility.yul\":5061:5140   */\n      tag_154\n      jump\t// in\n    tag_244:\n        /* \"#utility.yul\":5052:5140   */\n      swap2\n      pop\n        /* \"#utility.yul\":4868:5146   */\n      pop\n        /* \"#utility.yul\":4806:5146   */\n      swap3\n      swap2\n      pop\n      pop\n      jump\t// out\n        /* \"#utility.yul\":5152:5806   */\n    tag_41:\n        /* \"#utility.yul\":5230:5236   */\n      0x00\n        /* \"#utility.yul\":5238:5244   */\n      dup1\n        /* \"#utility.yul\":5287:5289   */\n      0x40\n        /* \"#utility.yul\":5275:5284   */\n      dup4\n        /* \"#utility.yul\":5266:5273   */\n      dup6\n        /* \"#utility.yul\":5262:5285   */\n      sub\n        /* \"#utility.yul\":5258:5290   */\n      slt\n        /* \"#utility.yul\":5255:5374   */\n      iszero\n      tag_246\n      jumpi\n        /* \"#utility.yul\":5293:5372   */\n      tag_247\n      tag_138\n      jump\t// in\n    tag_247:\n        /* \"#utility.yul\":5255:5374   */\n    tag_246:\n        /* \"#utility.yul\":5441:5442   */\n      0x00\n        /* \"#utility.yul\":5430:5439   */\n      dup4\n        /* \"#utility.yul\":5426:5443   */\n      add\n        /* \"#utility.yul\":5413:5444   */\n      calldataload\n        /* \"#utility.yul\":5471:5489   */\n      0xffffffffffffffff\n        /* \"#utility.yul\":5463:5469   */\n      dup2\n        /* \"#utility.yul\":5460:5490   */\n      gt\n        /* \"#utility.yul\":5457:5574   */\n      iszero\n      tag_248\n      jumpi\n        /* \"#utility.yul\":5493:5572   */\n      tag_249\n      tag_139\n      jump\t// in\n    tag_249:\n        /* \"#utility.yul\":5457:5574   */\n    tag_248:\n        /* \"#utility.yul\":5598:5661   */\n      tag_250\n        /* \"#utility.yul\":5653:5660   */\n      dup6\n        /* \"#utility.yul\":5644:5650   */\n      dup3\n        /* \"#utility.yul\":5633:5642   */\n      dup7\n        /* \"#utility.yul\":5629:5651   */\n      add\n        /* \"#utility.yul\":5598:5661   */\n      tag_155\n      jump\t// in\n    tag_250:\n        /* \"#utility.yul\":5588:5661   */\n      swap3\n      pop\n        /* \"#utility.yul\":5384:5671   */\n      pop\n        /* \"#utility.yul\":5710:5712   */\n      0x20\n        /* \"#utility.yul\":5736:5789   */\n      tag_251\n        /* \"#utility.yul\":5781:5788   */\n      dup6\n        /* \"#utility.yul\":5772:5778   */\n      dup3\n        /* \"#utility.yul\":5761:5770   */\n      dup7\n        /* \"#utility.yul\":5757:5779   */\n      add\n        /* \"#utility.yul\":5736:5789   */\n      tag_141\n      jump\t// in\n    tag_251:\n        /* \"#utility.yul\":5726:5789   */\n      swap2\n      pop\n        /* \"#utility.yul\":5681:5799   */\n      pop\n        /* \"#utility.yul\":5152:5806   */\n      swap3\n      pop\n      swap3\n      swap1\n      pop\n      jump\t// out\n        /* \"#utility.yul\":5812:5926   */\n    tag_156:\n        /* \"#utility.yul\":5879:5885   */\n      0x00\n        /* \"#utility.yul\":5913:5918   */\n      dup2\n        /* \"#utility.yul\":5907:5919   */\n      mload\n        /* \"#utility.yul\":5897:5919   */\n      swap1\n      pop\n        /* \"#utility.yul\":5812:5926   */\n      swap2\n      swap1\n      pop\n      jump\t// out\n        /* \"#utility.yul\":5932:6116   */\n    tag_157:\n        /* \"#utility.yul\":6031:6042   */\n      0x00\n        /* \"#utility.yul\":6065:6071   */\n      dup3\n        /* \"#utility.yul\":6060:6063   */\n      dup3\n        /* \"#utility.yul\":6053:6072   */\n      mstore\n        /* \"#utility.yul\":6105:6109   */\n      0x20\n        /* \"#utility.yul\":6100:6103   */\n      dup3\n        /* \"#utility.yul\":6096:6110   */\n      add\n        /* \"#utility.yul\":6081:6110   */\n      swap1\n      pop\n        /* \"#utility.yul\":5932:6116   */\n      swap3\n      swap2\n      pop\n      pop\n      jump\t// out\n        /* \"#utility.yul\":6122:6254   */\n    tag_158:\n        /* \"#utility.yul\":6189:6193   */\n      0x00\n        /* \"#utility.yul\":6212:6215   */\n      dup2\n        /* \"#utility.yul\":6204:6215   */\n      swap1\n      pop\n        /* \"#utility.yul\":6242:6246   */\n      0x20\n        /* \"#utility.yul\":6237:6240   */\n      dup3\n        /* \"#utility.yul\":6233:6247   */\n      add\n        /* \"#utility.yul\":6225:6247   */\n      swap1\n      pop\n        /* \"#utility.yul\":6122:6254   */\n      swap2\n      swap1\n      pop\n      jump\t// out\n        /* \"#utility.yul\":6260:6368   */\n    tag_159:\n        /* \"#utility.yul\":6337:6361   */\n      tag_256\n        /* \"#utility.yul\":6355:6360   */\n      dup2\n        /* \"#utility.yul\":6337:6361   */\n      tag_133\n      jump\t// in\n    tag_256:\n        /* \"#utility.yul\":6332:6335   */\n      dup3\n        /* \"#utility.yul\":6325:6362   */\n      mstore\n        /* \"#utility.yul\":6260:6368   */\n      pop\n      pop\n      jump\t// out\n        /* \"#utility.yul\":6374:6553   */\n    tag_160:\n        /* \"#utility.yul\":6443:6453   */\n      0x00\n        /* \"#utility.yul\":6464:6510   */\n      tag_258\n        /* \"#utility.yul\":6506:6509   */\n      dup4\n        /* \"#utility.yul\":6498:6504   */\n      dup4\n        /* \"#utility.yul\":6464:6510   */\n      tag_159\n      jump\t// in\n    tag_258:\n        /* \"#utility.yul\":6542:6546   */\n      0x20\n        /* \"#utility.yul\":6537:6540   */\n      dup4\n        /* \"#utility.yul\":6533:6547   */\n      add\n        /* \"#utility.yul\":6519:6547   */\n      swap1\n      pop\n        /* \"#utility.yul\":6374:6553   */\n      swap3\n      swap2\n      pop\n      pop\n      jump\t// out\n        /* \"#utility.yul\":6559:6672   */\n    tag_161:\n        /* \"#utility.yul\":6629:6633   */\n      0x00\n        /* \"#utility.yul\":6661:6665   */\n      0x20\n        /* \"#utility.yul\":6656:6659   */\n      dup3\n        /* \"#utility.yul\":6652:6666   */\n      add\n        /* \"#utility.yul\":6644:6666   */\n      swap1\n      pop\n        /* \"#utility.yul\":6559:6672   */\n      swap2\n      swap1\n      pop\n      jump\t// out\n        /* \"#utility.yul\":6708:7440   */\n    tag_162:\n        /* \"#utility.yul\":6827:6830   */\n      0x00\n        /* \"#utility.yul\":6856:6910   */\n      tag_261\n        /* \"#utility.yul\":6904:6909   */\n      dup3\n        /* \"#utility.yul\":6856:6910   */\n      tag_156\n      jump\t// in\n    tag_261:\n        /* \"#utility.yul\":6926:7012   */\n      tag_262\n        /* \"#utility.yul\":7005:7011   */\n      dup2\n        /* \"#utility.yul\":7000:7003   */\n      dup6\n        /* \"#utility.yul\":6926:7012   */\n      tag_157\n      jump\t// in\n    tag_262:\n        /* \"#utility.yul\":6919:7012   */\n      swap4\n      pop\n        /* \"#utility.yul\":7036:7092   */\n      tag_263\n        /* \"#utility.yul\":7086:7091   */\n      dup4\n        /* \"#utility.yul\":7036:7092   */\n      tag_158\n      jump\t// in\n    tag_263:\n        /* \"#utility.yul\":7115:7122   */\n      dup1\n        /* \"#utility.yul\":7146:7147   */\n      0x00\n        /* \"#utility.yul\":7131:7415   */\n    tag_264:\n        /* \"#utility.yul\":7156:7162   */\n      dup4\n        /* \"#utility.yul\":7153:7154   */\n      dup2\n        /* \"#utility.yul\":7150:7163   */\n      lt\n        /* \"#utility.yul\":7131:7415   */\n      iszero\n      tag_266\n      jumpi\n        /* \"#utility.yul\":7232:7238   */\n      dup2\n        /* \"#utility.yul\":7226:7239   */\n      mload\n        /* \"#utility.yul\":7259:7322   */\n      tag_267\n        /* \"#utility.yul\":7318:7321   */\n      dup9\n        /* \"#utility.yul\":7303:7316   */\n      dup3\n        /* \"#utility.yul\":7259:7322   */\n      tag_160\n      jump\t// in\n    tag_267:\n        /* \"#utility.yul\":7252:7322   */\n      swap8\n      pop\n        /* \"#utility.yul\":7345:7405   */\n      tag_268\n        /* \"#utility.yul\":7398:7404   */\n      dup4\n        /* \"#utility.yul\":7345:7405   */\n      tag_161\n      jump\t// in\n    tag_268:\n        /* \"#utility.yul\":7335:7405   */\n      swap3\n      pop\n        /* \"#utility.yul\":7191:7415   */\n      pop\n        /* \"#utility.yul\":7178:7179   */\n      0x01\n        /* \"#utility.yul\":7175:7176   */\n      dup2\n        /* \"#utility.yul\":7171:7180   */\n      add\n        /* \"#utility.yul\":7166:7180   */\n      swap1\n      pop\n        /* \"#utility.yul\":7131:7415   */\n      jump(tag_264)\n    tag_266:\n        /* \"#utility.yul\":7135:7149   */\n      pop\n        /* \"#utility.yul\":7431:7434   */\n      dup6\n        /* \"#utility.yul\":7424:7434   */\n      swap4\n      pop\n        /* \"#utility.yul\":6832:7440   */\n      pop\n      pop\n      pop\n        /* \"#utility.yul\":6708:7440   */\n      swap3\n      swap2\n      pop\n      pop\n      jump\t// out\n        /* \"#utility.yul\":7446:7819   */\n    tag_51:\n        /* \"#utility.yul\":7589:7593   */\n      0x00\n        /* \"#utility.yul\":7627:7629   */\n      0x20\n        /* \"#utility.yul\":7616:7625   */\n      dup3\n        /* \"#utility.yul\":7612:7630   */\n      add\n        /* \"#utility.yul\":7604:7630   */\n      swap1\n      pop\n        /* \"#utility.yul\":7676:7685   */\n      dup2\n        /* \"#utility.yul\":7670:7674   */\n      dup2\n        /* \"#utility.yul\":7666:7686   */\n      sub\n        /* \"#utility.yul\":7662:7663   */\n      0x00\n        /* \"#utility.yul\":7651:7660   */\n      dup4\n        /* \"#utility.yul\":7647:7664   */\n      add\n        /* \"#utility.yul\":7640:7687   */\n      mstore\n        /* \"#utility.yul\":7704:7812   */\n      tag_270\n        /* \"#utility.yul\":7807:7811   */\n      dup2\n        /* \"#utility.yul\":7798:7804   */\n      dup5\n        /* \"#utility.yul\":7704:7812   */\n      tag_162\n      jump\t// in\n    tag_270:\n        /* \"#utility.yul\":7696:7812   */\n      swap1\n      pop\n        /* \"#utility.yul\":7446:7819   */\n      swap3\n      swap2\n      pop\n      pop\n      jump\t// out\n        /* \"#utility.yul\":7825:8248   */\n    tag_56:\n        /* \"#utility.yul\":7966:7970   */\n      0x00\n        /* \"#utility.yul\":8004:8006   */\n      0x40\n        /* \"#utility.yul\":7993:8002   */\n      dup3\n        /* \"#utility.yul\":7989:8007   */\n      add\n        /* \"#utility.yul\":7981:8007   */\n      swap1\n      pop\n        /* \"#utility.yul\":8053:8062   */\n      dup2\n        /* \"#utility.yul\":8047:8051   */\n      dup2\n        /* \"#utility.yul\":8043:8063   */\n      sub\n        /* \"#utility.yul\":8039:8040   */\n      0x00\n        /* \"#utility.yul\":8028:8037   */\n      dup4\n        /* \"#utility.yul\":8024:8041   */\n      add\n        /* \"#utility.yul\":8017:8064   */\n      mstore\n        /* \"#utility.yul\":8081:8159   */\n      tag_272\n        /* \"#utility.yul\":8154:8158   */\n      dup2\n        /* \"#utility.yul\":8145:8151   */\n      dup6\n        /* \"#utility.yul\":8081:8159   */\n      tag_146\n      jump\t// in\n    tag_272:\n        /* \"#utility.yul\":8073:8159   */\n      swap1\n      pop\n        /* \"#utility.yul\":8169:8241   */\n      tag_273\n        /* \"#utility.yul\":8237:8239   */\n      0x20\n        /* \"#utility.yul\":8226:8235   */\n      dup4\n        /* \"#utility.yul\":8222:8240   */\n      add\n        /* \"#utility.yul\":8213:8219   */\n      dup5\n        /* \"#utility.yul\":8169:8241   */\n      tag_134\n      jump\t// in\n    tag_273:\n        /* \"#utility.yul\":7825:8248   */\n      swap4\n      swap3\n      pop\n      pop\n      pop\n      jump\t// out\n        /* \"#utility.yul\":8254:8434   */\n    tag_90:\n        /* \"#utility.yul\":8302:8379   */\n      0x4e487b7100000000000000000000000000000000000000000000000000000000\n        /* \"#utility.yul\":8299:8300   */\n      0x00\n        /* \"#utility.yul\":8292:8380   */\n      mstore\n        /* \"#utility.yul\":8399:8403   */\n      0x21\n        /* \"#utility.yul\":8396:8397   */\n      0x04\n        /* \"#utility.yul\":8389:8404   */\n      mstore\n        /* \"#utility.yul\":8423:8427   */\n      0x24\n        /* \"#utility.yul\":8420:8421   */\n      0x00\n        /* \"#utility.yul\":8413:8428   */\n      revert\n        /* \"#utility.yul\":8440:8561   */\n    tag_163:\n        /* \"#utility.yul\":8529:8530   */\n      0x02\n        /* \"#utility.yul\":8522:8527   */\n      dup2\n        /* \"#utility.yul\":8519:8531   */\n      lt\n        /* \"#utility.yul\":8509:8555   */\n      tag_276\n      jumpi\n        /* \"#utility.yul\":8535:8553   */\n      tag_277\n      tag_90\n      jump\t// in\n    tag_277:\n        /* \"#utility.yul\":8509:8555   */\n    tag_276:\n        /* \"#utility.yul\":8440:8561   */\n      pop\n      jump\t// out\n        /* \"#utility.yul\":8567:8710   */\n    tag_164:\n        /* \"#utility.yul\":8620:8627   */\n      0x00\n        /* \"#utility.yul\":8649:8654   */\n      dup2\n        /* \"#utility.yul\":8638:8654   */\n      swap1\n      pop\n        /* \"#utility.yul\":8655:8704   */\n      tag_279\n        /* \"#utility.yul\":8698:8703   */\n      dup3\n        /* \"#utility.yul\":8655:8704   */\n      tag_163\n      jump\t// in\n    tag_279:\n        /* \"#utility.yul\":8567:8710   */\n      swap2\n      swap1\n      pop\n      jump\t// out\n        /* \"#utility.yul\":8716:8859   */\n    tag_165:\n        /* \"#utility.yul\":8780:8789   */\n      0x00\n        /* \"#utility.yul\":8813:8853   */\n      tag_281\n        /* \"#utility.yul\":8847:8852   */\n      dup3\n        /* \"#utility.yul\":8813:8853   */\n      tag_164\n      jump\t// in\n    tag_281:\n        /* \"#utility.yul\":8800:8853   */\n      swap1\n      pop\n        /* \"#utility.yul\":8716:8859   */\n      swap2\n      swap1\n      pop\n      jump\t// out\n        /* \"#utility.yul\":8865:9024   */\n    tag_166:\n        /* \"#utility.yul\":8966:9017   */\n      tag_283\n        /* \"#utility.yul\":9011:9016   */\n      dup2\n        /* \"#utility.yul\":8966:9017   */\n      tag_165\n      jump\t// in\n    tag_283:\n        /* \"#utility.yul\":8961:8964   */\n      dup3\n        /* \"#utility.yul\":8954:9018   */\n      mstore\n        /* \"#utility.yul\":8865:9024   */\n      pop\n      pop\n      jump\t// out\n        /* \"#utility.yul\":9030:9280   */\n    tag_71:\n        /* \"#utility.yul\":9137:9141   */\n      0x00\n        /* \"#utility.yul\":9175:9177   */\n      0x20\n        /* \"#utility.yul\":9164:9173   */\n      dup3\n        /* \"#utility.yul\":9160:9178   */\n      add\n        /* \"#utility.yul\":9152:9178   */\n      swap1\n      pop\n        /* \"#utility.yul\":9188:9273   */\n      tag_285\n        /* \"#utility.yul\":9270:9271   */\n      0x00\n        /* \"#utility.yul\":9259:9268   */\n      dup4\n        /* \"#utility.yul\":9255:9272   */\n      add\n        /* \"#utility.yul\":9246:9252   */\n      dup5\n        /* \"#utility.yul\":9188:9273   */\n      tag_166\n      jump\t// in\n    tag_285:\n        /* \"#utility.yul\":9030:9280   */\n      swap3\n      swap2\n      pop\n      pop\n      jump\t// out\n        /* \"#utility.yul\":9286:9466   */\n    tag_167:\n        /* \"#utility.yul\":9334:9411   */\n      0x4e487b7100000000000000000000000000000000000000000000000000000000\n        /* \"#utility.yul\":9331:9332   */\n      0x00\n        /* \"#utility.yul\":9324:9412   */\n      mstore\n        /* \"#utility.yul\":9431:9435   */\n      0x11\n        /* \"#utility.yul\":9428:9429   */\n      0x04\n        /* \"#utility.yul\":9421:9436   */\n      mstore\n        /* \"#utility.yul\":9455:9459   */\n      0x24\n        /* \"#utility.yul\":9452:9453   */\n      0x00\n        /* \"#utility.yul\":9445:9460   */\n      revert\n        /* \"#utility.yul\":9472:9663   */\n    tag_84:\n        /* \"#utility.yul\":9512:9515   */\n      0x00\n        /* \"#utility.yul\":9531:9551   */\n      tag_288\n        /* \"#utility.yul\":9549:9550   */\n      dup3\n        /* \"#utility.yul\":9531:9551   */\n      tag_133\n      jump\t// in\n    tag_288:\n        /* \"#utility.yul\":9526:9551   */\n      swap2\n      pop\n        /* \"#utility.yul\":9565:9585   */\n      tag_289\n        /* \"#utility.yul\":9583:9584   */\n      dup4\n        /* \"#utility.yul\":9565:9585   */\n      tag_133\n      jump\t// in\n    tag_289:\n        /* \"#utility.yul\":9560:9585   */\n      swap3\n      pop\n        /* \"#utility.yul\":9608:9609   */\n      dup3\n        /* \"#utility.yul\":9605:9606   */\n      dup3\n        /* \"#utility.yul\":9601:9610   */\n      add\n        /* \"#utility.yul\":9594:9610   */\n      swap1\n      pop\n        /* \"#utility.yul\":9629:9632   */\n      dup1\n        /* \"#utility.yul\":9626:9627   */\n      dup3\n        /* \"#utility.yul\":9623:9633   */\n      gt\n        /* \"#utility.yul\":9620:9656   */\n      iszero\n      tag_290\n      jumpi\n        /* \"#utility.yul\":9636:9654   */\n      tag_291\n      tag_167\n      jump\t// in\n    tag_291:\n        /* \"#utility.yul\":9620:9656   */\n    tag_290:\n        /* \"#utility.yul\":9472:9663   */\n      swap3\n      swap2\n      pop\n      pop\n      jump\t// out\n        /* \"#utility.yul\":9669:9902   */\n    tag_86:\n        /* \"#utility.yul\":9708:9711   */\n      0x00\n        /* \"#utility.yul\":9731:9755   */\n      tag_293\n        /* \"#utility.yul\":9749:9754   */\n      dup3\n        /* \"#utility.yul\":9731:9755   */\n      tag_133\n      jump\t// in\n    tag_293:\n        /* \"#utility.yul\":9722:9755   */\n      swap2\n      pop\n        /* \"#utility.yul\":9777:9843   */\n      0xffffffffffffffffffffffffffffffffffffffffffffffffffffffffffffffff\n        /* \"#utility.yul\":9770:9775   */\n      dup3\n        /* \"#utility.yul\":9767:9844   */\n      sub\n        /* \"#utility.yul\":9764:9867   */\n      tag_294\n      jumpi\n        /* \"#utility.yul\":9847:9865   */\n      tag_295\n      tag_167\n      jump\t// in\n    tag_295:\n        /* \"#utility.yul\":9764:9867   */\n    tag_294:\n        /* \"#utility.yul\":9894:9895   */\n      0x01\n        /* \"#utility.yul\":9887:9892   */\n      dup3\n        /* \"#utility.yul\":9883:9896   */\n      add\n        /* \"#utility.yul\":9876:9896   */\n      swap1\n      pop\n        /* \"#utility.yul\":9669:9902   */\n      swap2\n      swap1\n      pop\n      jump\t// out\n        /* \"#utility.yul\":9908:10088   */\n    tag_168:\n        /* \"#utility.yul\":9956:10033   */\n      0x4e487b7100000000000000000000000000000000000000000000000000000000\n        /* \"#utility.yul\":9953:9954   */\n      0x00\n        /* \"#utility.yul\":9946:10034   */\n      mstore\n        /* \"#utility.yul\":10053:10057   */\n      0x22\n        /* \"#utility.yul\":10050:10051   */\n      0x04\n        /* \"#utility.yul\":10043:10058   */\n      mstore\n        /* \"#utility.yul\":10077:10081   */\n      0x24\n        /* \"#utility.yul\":10074:10075   */\n      0x00\n        /* \"#utility.yul\":10067:10082   */\n      revert\n        /* \"#utility.yul\":10094:10414   */\n    tag_112:\n        /* \"#utility.yul\":10138:10144   */\n      0x00\n        /* \"#utility.yul\":10175:10176   */\n      0x02\n        /* \"#utility.yul\":10169:10173   */\n      dup3\n        /* \"#utility.yul\":10165:10177   */\n      div\n        /* \"#utility.yul\":10155:10177   */\n      swap1\n      pop\n        /* \"#utility.yul\":10222:10223   */\n      0x01\n        /* \"#utility.yul\":10216:10220   */\n      dup3\n        /* \"#utility.yul\":10212:10224   */\n      and\n        /* \"#utility.yul\":10243:10261   */\n      dup1\n        /* \"#utility.yul\":10233:10314   */\n      tag_298\n      jumpi\n        /* \"#utility.yul\":10299:10303   */\n      0x7f\n        /* \"#utility.yul\":10291:10297   */\n      dup3\n        /* \"#utility.yul\":10287:10304   */\n      and\n        /* \"#utility.yul\":10277:10304   */\n      swap2\n      pop\n        /* \"#utility.yul\":10233:10314   */\n    tag_298:\n        /* \"#utility.yul\":10361:10363   */\n      0x20\n        /* \"#utility.yul\":10353:10359   */\n      dup3\n        /* \"#utility.yul\":10350:10364   */\n      lt\n        /* \"#utility.yul\":10330:10348   */\n      dup2\n        /* \"#utility.yul\":10327:10365   */\n      sub\n        /* \"#utility.yul\":10324:10408   */\n      tag_299\n      jumpi\n        /* \"#utility.yul\":10380:10398   */\n      tag_300\n      tag_168\n      jump\t// in\n    tag_300:\n        /* \"#utility.yul\":10324:10408   */\n    tag_299:\n        /* \"#utility.yul\":10145:10414   */\n      pop\n        /* \"#utility.yul\":10094:10414   */\n      swap2\n      swap1\n      pop\n      jump\t// out\n        /* \"#utility.yul\":10420:10561   */\n    tag_169:\n        /* \"#utility.yul\":10469:10473   */\n      0x00\n        /* \"#utility.yul\":10492:10495   */\n      dup2\n        /* \"#utility.yul\":10484:10495   */\n      swap1\n      pop\n        /* \"#utility.yul\":10515:10518   */\n      dup2\n        /* \"#utility.yul\":10512:10513   */\n      0x00\n        /* \"#utility.yul\":10505:10519   */\n      mstore\n        /* \"#utility.yul\":10549:10553   */\n      0x20\n        /* \"#utility.yul\":10546:10547   */\n      0x00\n        /* \"#utility.yul\":10536:10554   */\n      keccak256\n        /* \"#utility.yul\":10528:10554   */\n      swap1\n      pop\n        /* \"#utility.yul\":10420:10561   */\n      swap2\n      swap1\n      pop\n      jump\t// out\n        /* \"#utility.yul\":10567:10660   */\n    tag_170:\n        /* \"#utility.yul\":10604:10610   */\n      0x00\n        /* \"#utility.yul\":10651:10653   */\n      0x20\n        /* \"#utility.yul\":10646:10648   */\n      0x1f\n        /* \"#utility.yul\":10639:10644   */\n      dup4\n        /* \"#utility.yul\":10635:10649   */\n      add\n        /* \"#utility.yul\":10631:10654   */\n      div\n        /* \"#utility.yul\":10621:10654   */\n      swap1\n      pop\n        /* \"#utility.yul\":10567:10660   */\n      swap2\n      swap1\n      pop\n      jump\t// out\n        /* \"#utility.yul\":10666:10773   */\n    tag_171:\n        /* \"#utility.yul\":10710:10718   */\n      0x00\n        /* \"#utility.yul\":10760:10765   */\n      dup3\n        /* \"#utility.yul\":10754:10758   */\n      dup3\n        /* \"#utility.yul\":10750:10766   */\n      shl\n        /* \"#utility.yul\":10729:10766   */\n      swap1\n      pop\n        /* \"#utility.yul\":10666:10773   */\n      swap3\n      swap2\n      pop\n      pop\n      jump\t// out\n        /* \"#utility.yul\":10779:11172   */\n    tag_172:\n        /* \"#utility.yul\":10848:10854   */\n      0x00\n        /* \"#utility.yul\":10898:10899   */\n      0x08\n        /* \"#utility.yul\":10886:10896   */\n      dup4\n        /* \"#utility.yul\":10882:10900   */\n      mul\n        /* \"#utility.yul\":10921:11018   */\n      tag_305\n        /* \"#utility.yul\":10951:11017   */\n      0xffffffffffffffffffffffffffffffffffffffffffffffffffffffffffffffff\n        /* \"#utility.yul\":10940:10949   */\n      dup3\n        /* \"#utility.yul\":10921:11018   */\n      tag_171\n      jump\t// in\n    tag_305:\n        /* \"#utility.yul\":11039:11078   */\n      tag_306\n        /* \"#utility.yul\":11069:11077   */\n      dup7\n        /* \"#utility.yul\":11058:11067   */\n      dup4\n        /* \"#utility.yul\":11039:11078   */\n      tag_171\n      jump\t// in\n    tag_306:\n        /* \"#utility.yul\":11027:11078   */\n      swap6\n      pop\n        /* \"#utility.yul\":11111:11115   */\n      dup1\n        /* \"#utility.yul\":11107:11116   */\n      not\n        /* \"#utility.yul\":11100:11105   */\n      dup5\n        /* \"#utility.yul\":11096:11117   */\n      and\n        /* \"#utility.yul\":11087:11117   */\n      swap4\n      pop\n        /* \"#utility.yul\":11160:11164   */\n      dup1\n        /* \"#utility.yul\":11150:11158   */\n      dup7\n        /* \"#utility.yul\":11146:11165   */\n      and\n        /* \"#utility.yul\":11139:11144   */\n      dup5\n        /* \"#utility.yul\":11136:11166   */\n      or\n        /* \"#utility.yul\":11126:11166   */\n      swap3\n      pop\n        /* \"#utility.yul\":10855:11172   */\n      pop\n      pop\n        /* \"#utility.yul\":10779:11172   */\n      swap4\n      swap3\n      pop\n      pop\n      pop\n      jump\t// out\n        /* \"#utility.yul\":11178:11238   */\n    tag_173:\n        /* \"#utility.yul\":11206:11209   */\n      0x00\n        /* \"#utility.yul\":11227:11232   */\n      dup2\n        /* \"#utility.yul\":11220:11232   */\n      swap1\n      pop\n        /* \"#utility.yul\":11178:11238   */\n      swap2\n      swap1\n      pop\n      jump\t// out\n        /* \"#utility.yul\":11244:11386   */\n    tag_174:\n        /* \"#utility.yul\":11294:11303   */\n      0x00\n        /* \"#utility.yul\":11327:11380   */\n      tag_309\n        /* \"#utility.yul\":11345:11379   */\n      tag_310\n        /* \"#utility.yul\":11354:11378   */\n      tag_311\n        /* \"#utility.yul\":11372:11377   */\n      dup5\n        /* \"#utility.yul\":11354:11378   */\n      tag_133\n      jump\t// in\n    tag_311:\n        /* \"#utility.yul\":11345:11379   */\n      tag_173\n      jump\t// in\n    tag_310:\n        /* \"#utility.yul\":11327:11380   */\n      tag_133\n      jump\t// in\n    tag_309:\n        /* \"#utility.yul\":11314:11380   */\n      swap1\n      pop\n        /* \"#utility.yul\":11244:11386   */\n      swap2\n      swap1\n      pop\n      jump\t// out\n        /* \"#utility.yul\":11392:11467   */\n    tag_175:\n        /* \"#utility.yul\":11435:11438   */\n      0x00\n        /* \"#utility.yul\":11456:11461   */\n      dup2\n        /* \"#utility.yul\":11449:11461   */\n      swap1\n      pop\n        /* \"#utility.yul\":11392:11467   */\n      swap2\n      swap1\n      pop\n      jump\t// out\n        /* \"#utility.yul\":11473:11742   */\n    tag_176:\n        /* \"#utility.yul\":11583:11622   */\n      tag_314\n        /* \"#utility.yul\":11614:11621   */\n      dup4\n        /* \"#utility.yul\":11583:11622   */\n      tag_174\n      jump\t// in\n    tag_314:\n        /* \"#utility.yul\":11644:11735   */\n      tag_315\n        /* \"#utility.yul\":11693:11734   */\n      tag_316\n        /* \"#utility.yul\":11717:11733   */\n      dup3\n        /* \"#utility.yul\":11693:11734   */\n      tag_175\n      jump\t// in\n    tag_316:\n        /* \"#utility.yul\":11685:11691   */\n      dup5\n        /* \"#utility.yul\":11678:11682   */\n      dup5\n        /* \"#utility.yul\":11672:11683   */\n      sload\n        /* \"#utility.yul\":11644:11735   */\n      tag_172\n      jump\t// in\n    tag_315:\n        /* \"#utility.yul\":11638:11642   */\n      dup3\n        /* \"#utility.yul\":11631:11736   */\n      sstore\n        /* \"#utility.yul\":11549:11742   */\n      pop\n        /* \"#utility.yul\":11473:11742   */\n      pop\n      pop\n      pop\n      jump\t// out\n        /* \"#utility.yul\":11748:11821   */\n    tag_177:\n        /* \"#utility.yul\":11793:11796   */\n      0x00\n        /* \"#utility.yul\":11748:11821   */\n      swap1\n      jump\t// out\n        /* \"#utility.yul\":11827:12016   */\n    tag_178:\n        /* \"#utility.yul\":11904:11936   */\n      tag_319\n      tag_177\n      jump\t// in\n    tag_319:\n        /* \"#utility.yul\":11945:12010   */\n      tag_320\n        /* \"#utility.yul\":12003:12009   */\n      dup2\n        /* \"#utility.yul\":11995:12001   */\n      dup5\n        /* \"#utility.yul\":11989:11993   */\n      dup5\n        /* \"#utility.yul\":11945:12010   */\n      tag_176\n      jump\t// in\n    tag_320:\n        /* \"#utility.yul\":11880:12016   */\n      pop\n        /* \"#utility.yul\":11827:12016   */\n      pop\n      pop\n      jump\t// out\n        /* \"#utility.yul\":12022:12208   */\n    tag_179:\n        /* \"#utility.yul\":12082:12202   */\n    tag_322:\n        /* \"#utility.yul\":12099:12102   */\n      dup2\n        /* \"#utility.yul\":12092:12097   */\n      dup2\n        /* \"#utility.yul\":12089:12103   */\n      lt\n        /* \"#utility.yul\":12082:12202   */\n      iszero\n      tag_324\n      jumpi\n        /* \"#utility.yul\":12153:12192   */\n      tag_325\n        /* \"#utility.yul\":12190:12191   */\n      0x00\n        /* \"#utility.yul\":12183:12188   */\n      dup3\n        /* \"#utility.yul\":12153:12192   */\n      tag_178\n      jump\t// in\n    tag_325:\n        /* \"#utility.yul\":12126:12127   */\n      0x01\n        /* \"#utility.yul\":12119:12124   */\n      dup2\n        /* \"#utility.yul\":12115:12128   */\n      add\n        /* \"#utility.yul\":12106:12128   */\n      swap1\n      pop\n        /* \"#utility.yul\":12082:12202   */\n      jump(tag_322)\n    tag_324:\n        /* \"#utility.yul\":12022:12208   */\n      pop\n      pop\n      jump\t// out\n        /* \"#utility.yul\":12214:12757   */\n    tag_180:\n        /* \"#utility.yul\":12315:12317   */\n      0x1f\n        /* \"#utility.yul\":12310:12313   */\n      dup3\n        /* \"#utility.yul\":12307:12318   */\n      gt\n        /* \"#utility.yul\":12304:12750   */\n      iszero\n      tag_327\n      jumpi\n        /* \"#utility.yul\":12349:12387   */\n      tag_328\n        /* \"#utility.yul\":12381:12386   */\n      dup2\n        /* \"#utility.yul\":12349:12387   */\n      tag_169\n      jump\t// in\n    tag_328:\n        /* \"#utility.yul\":12433:12462   */\n      tag_329\n        /* \"#utility.yul\":12451:12461   */\n      dup5\n        /* \"#utility.yul\":12433:12462   */\n      tag_170\n      jump\t// in\n    tag_329:\n        /* \"#utility.yul\":12423:12431   */\n      dup2\n        /* \"#utility.yul\":12419:12463   */\n      add\n        /* \"#utility.yul\":12616:12618   */\n      0x20\n        /* \"#utility.yul\":12604:12614   */\n      dup6\n        /* \"#utility.yul\":12601:12619   */\n      lt\n        /* \"#utility.yul\":12598:12647   */\n      iszero\n      tag_330\n      jumpi\n        /* \"#utility.yul\":12637:12645   */\n      dup2\n        /* \"#utility.yul\":12622:12645   */\n      swap1\n      pop\n        /* \"#utility.yul\":12598:12647   */\n    tag_330:\n        /* \"#utility.yul\":12660:12740   */\n      tag_331\n        /* \"#utility.yul\":12716:12738   */\n      tag_332\n        /* \"#utility.yul\":12734:12737   */\n      dup6\n        /* \"#utility.yul\":12716:12738   */\n      tag_170\n      jump\t// in\n    tag_332:\n        /* \"#utility.yul\":12706:12714   */\n      dup4\n        /* \"#utility.yul\":12702:12739   */\n      add\n        /* \"#utility.yul\":12689:12700   */\n      dup3\n        /* \"#utility.yul\":12660:12740   */\n      tag_179\n      jump\t// in\n    tag_331:\n        /* \"#utility.yul\":12319:12750   */\n      pop\n      pop\n        /* \"#utility.yul\":12304:12750   */\n    tag_327:\n        /* \"#utility.yul\":12214:12757   */\n      pop\n      pop\n      pop\n      jump\t// out\n        /* \"#utility.yul\":12763:12880   */\n    tag_181:\n        /* \"#utility.yul\":12817:12825   */\n      0x00\n        /* \"#utility.yul\":12867:12872   */\n      dup3\n        /* \"#utility.yul\":12861:12865   */\n      dup3\n        /* \"#utility.yul\":12857:12873   */\n      shr\n        /* \"#utility.yul\":12836:12873   */\n      swap1\n      pop\n        /* \"#utility.yul\":12763:12880   */\n      swap3\n      swap2\n      pop\n      pop\n      jump\t// out\n        /* \"#utility.yul\":12886:13055   */\n    tag_182:\n        /* \"#utility.yul\":12930:12936   */\n      0x00\n        /* \"#utility.yul\":12963:13014   */\n      tag_335\n        /* \"#utility.yul\":13011:13012   */\n      0x00\n        /* \"#utility.yul\":13007:13013   */\n      not\n        /* \"#utility.yul\":12999:13004   */\n      dup5\n        /* \"#utility.yul\":12996:12997   */\n      0x08\n        /* \"#utility.yul\":12992:13005   */\n      mul\n        /* \"#utility.yul\":12963:13014   */\n      tag_181\n      jump\t// in\n    tag_335:\n        /* \"#utility.yul\":12959:13015   */\n      not\n        /* \"#utility.yul\":13044:13048   */\n      dup1\n        /* \"#utility.yul\":13038:13042   */\n      dup4\n        /* \"#utility.yul\":13034:13049   */\n      and\n        /* \"#utility.yul\":13024:13049   */\n      swap2\n      pop\n        /* \"#utility.yul\":12937:13055   */\n      pop\n        /* \"#utility.yul\":12886:13055   */\n      swap3\n      swap2\n      pop\n      pop\n      jump\t// out\n        /* \"#utility.yul\":13060:13355   */\n    tag_183:\n        /* \"#utility.yul\":13136:13140   */\n      0x00\n        /* \"#utility.yul\":13282:13311   */\n      tag_337\n        /* \"#utility.yul\":13307:13310   */\n      dup4\n        /* \"#utility.yul\":13301:13305   */\n      dup4\n        /* \"#utility.yul\":13282:13311   */\n      tag_182\n      jump\t// in\n    tag_337:\n        /* \"#utility.yul\":13274:13311   */\n      swap2\n      pop\n        /* \"#utility.yul\":13344:13347   */\n      dup3\n        /* \"#utility.yul\":13341:13342   */\n      0x02\n        /* \"#utility.yul\":13337:13348   */\n      mul\n        /* \"#utility.yul\":13331:13335   */\n      dup3\n        /* \"#utility.yul\":13328:13349   */\n      or\n        /* \"#utility.yul\":13320:13349   */\n      swap1\n      pop\n        /* \"#utility.yul\":13060:13355   */\n      swap3\n      swap2\n      pop\n      pop\n      jump\t// out\n        /* \"#utility.yul\":13360:14755   */\n    tag_99:\n        /* \"#utility.yul\":13477:13514   */\n      tag_339\n        /* \"#utility.yul\":13510:13513   */\n      dup3\n        /* \"#utility.yul\":13477:13514   */\n      tag_142\n      jump\t// in\n    tag_339:\n        /* \"#utility.yul\":13579:13597   */\n      0xffffffffffffffff\n        /* \"#utility.yul\":13571:13577   */\n      dup2\n        /* \"#utility.yul\":13568:13598   */\n      gt\n        /* \"#utility.yul\":13565:13621   */\n      iszero\n      tag_340\n      jumpi\n        /* \"#utility.yul\":13601:13619   */\n      tag_341\n      tag_149\n      jump\t// in\n    tag_341:\n        /* \"#utility.yul\":13565:13621   */\n    tag_340:\n        /* \"#utility.yul\":13645:13683   */\n      tag_342\n        /* \"#utility.yul\":13677:13681   */\n      dup3\n        /* \"#utility.yul\":13671:13682   */\n      sload\n        /* \"#utility.yul\":13645:13683   */\n      tag_112\n      jump\t// in\n    tag_342:\n        /* \"#utility.yul\":13730:13797   */\n      tag_343\n        /* \"#utility.yul\":13790:13796   */\n      dup3\n        /* \"#utility.yul\":13782:13788   */\n      dup3\n        /* \"#utility.yul\":13776:13780   */\n      dup6\n        /* \"#utility.yul\":13730:13797   */\n      tag_180\n      jump\t// in\n    tag_343:\n        /* \"#utility.yul\":13824:13825   */\n      0x00\n        /* \"#utility.yul\":13848:13852   */\n      0x20\n        /* \"#utility.yul\":13835:13852   */\n      swap1\n      pop\n        /* \"#utility.yul\":13880:13882   */\n      0x1f\n        /* \"#utility.yul\":13872:13878   */\n      dup4\n        /* \"#utility.yul\":13869:13883   */\n      gt\n        /* \"#utility.yul\":13897:13898   */\n      0x01\n        /* \"#utility.yul\":13892:14510   */\n      dup2\n      eq\n      tag_345\n      jumpi\n        /* \"#utility.yul\":14554:14555   */\n      0x00\n        /* \"#utility.yul\":14571:14577   */\n      dup5\n        /* \"#utility.yul\":14568:14645   */\n      iszero\n      tag_346\n      jumpi\n        /* \"#utility.yul\":14620:14629   */\n      dup3\n        /* \"#utility.yul\":14615:14618   */\n      dup8\n        /* \"#utility.yul\":14611:14630   */\n      add\n        /* \"#utility.yul\":14605:14631   */\n      mload\n        /* \"#utility.yul\":14596:14631   */\n      swap1\n      pop\n        /* \"#utility.yul\":14568:14645   */\n    tag_346:\n        /* \"#utility.yul\":14671:14738   */\n      tag_347\n        /* \"#utility.yul\":14731:14737   */\n      dup6\n        /* \"#utility.yul\":14724:14729   */\n      dup3\n        /* \"#utility.yul\":14671:14738   */\n      tag_183\n      jump\t// in\n    tag_347:\n        /* \"#utility.yul\":14665:14669   */\n      dup7\n        /* \"#utility.yul\":14658:14739   */\n      sstore\n        /* \"#utility.yul\":14527:14749   */\n      pop\n        /* \"#utility.yul\":13862:14749   */\n      jump(tag_344)\n        /* \"#utility.yul\":13892:14510   */\n    tag_345:\n        /* \"#utility.yul\":13944:13948   */\n      0x1f\n        /* \"#utility.yul\":13940:13949   */\n      not\n        /* \"#utility.yul\":13932:13938   */\n      dup5\n        /* \"#utility.yul\":13928:13950   */\n      and\n        /* \"#utility.yul\":13978:14015   */\n      tag_348\n        /* \"#utility.yul\":14010:14014   */\n      dup7\n        /* \"#utility.yul\":13978:14015   */\n      tag_169\n      jump\t// in\n    tag_348:\n        /* \"#utility.yul\":14037:14038   */\n      0x00\n        /* \"#utility.yul\":14051:14259   */\n    tag_349:\n        /* \"#utility.yul\":14065:14072   */\n      dup3\n        /* \"#utility.yul\":14062:14063   */\n      dup2\n        /* \"#utility.yul\":14059:14073   */\n      lt\n        /* \"#utility.yul\":14051:14259   */\n      iszero\n      tag_351\n      jumpi\n        /* \"#utility.yul\":14144:14153   */\n      dup5\n        /* \"#utility.yul\":14139:14142   */\n      dup10\n        /* \"#utility.yul\":14135:14154   */\n      add\n        /* \"#utility.yul\":14129:14155   */\n      mload\n        /* \"#utility.yul\":14121:14127   */\n      dup3\n        /* \"#utility.yul\":14114:14156   */\n      sstore\n        /* \"#utility.yul\":14195:14196   */\n      0x01\n        /* \"#utility.yul\":14187:14193   */\n      dup3\n        /* \"#utility.yul\":14183:14197   */\n      add\n        /* \"#utility.yul\":14173:14197   */\n      swap2\n      pop\n        /* \"#utility.yul\":14242:14244   */\n      0x20\n        /* \"#utility.yul\":14231:14240   */\n      dup6\n        /* \"#utility.yul\":14227:14245   */\n      add\n        /* \"#utility.yul\":14214:14245   */\n      swap5\n      pop\n        /* \"#utility.yul\":14088:14092   */\n      0x20\n        /* \"#utility.yul\":14085:14086   */\n      dup2\n        /* \"#utility.yul\":14081:14093   */\n      add\n        /* \"#utility.yul\":14076:14093   */\n      swap1\n      pop\n        /* \"#utility.yul\":14051:14259   */\n      jump(tag_349)\n    tag_351:\n        /* \"#utility.yul\":14287:14293   */\n      dup7\n        /* \"#utility.yul\":14278:14285   */\n      dup4\n        /* \"#utility.yul\":14275:14294   */\n      lt\n        /* \"#utility.yul\":14272:14451   */\n      iszero\n      tag_352\n      jumpi\n        /* \"#utility.yul\":14345:14354   */\n      dup5\n        /* \"#utility.yul\":14340:14343   */\n      dup10\n        /* \"#utility.yul\":14336:14355   */\n      add\n        /* \"#utility.yul\":14330:14356   */\n      mload\n        /* \"#utility.yul\":14388:14436   */\n      tag_353\n        /* \"#utility.yul\":14430:14434   */\n      0x1f\n        /* \"#utility.yul\":14422:14428   */\n      dup10\n        /* \"#utility.yul\":14418:14435   */\n      and\n        /* \"#utility.yul\":14407:14416   */\n      dup3\n        /* \"#utility.yul\":14388:14436   */\n      tag_182\n      jump\t// in\n    tag_353:\n        /* \"#utility.yul\":14380:14386   */\n      dup4\n        /* \"#utility.yul\":14373:14437   */\n      sstore\n        /* \"#utility.yul\":14295:14451   */\n      pop\n        /* \"#utility.yul\":14272:14451   */\n    tag_352:\n        /* \"#utility.yul\":14497:14498   */\n      0x01\n        /* \"#utility.yul\":14493:14494   */\n      0x02\n        /* \"#utility.yul\":14485:14491   */\n      dup9\n        /* \"#utility.yul\":14481:14495   */\n      mul\n        /* \"#utility.yul\":14477:14499   */\n      add\n        /* \"#utility.yul\":14471:14475   */\n      dup9\n        /* \"#utility.yul\":14464:14500   */\n      sstore\n        /* \"#utility.yul\":13899:14510   */\n      pop\n      pop\n      pop\n        /* \"#utility.yul\":13862:14749   */\n    tag_344:\n      pop\n        /* \"#utility.yul\":13452:14755   */\n      pop\n      pop\n      pop\n        /* \"#utility.yul\":13360:14755   */\n      pop\n      pop\n      jump\t// out\n        /* \"#utility.yul\":14761:15195   */\n    tag_184:\n        /* \"#utility.yul\":14850:14855   */\n      0x00\n        /* \"#utility.yul\":14875:14941   */\n      tag_355\n        /* \"#utility.yul\":14891:14940   */\n      tag_356\n        /* \"#utility.yul\":14933:14939   */\n      dup5\n        /* \"#utility.yul\":14891:14940   */\n      tag_152\n      jump\t// in\n    tag_356:\n        /* \"#utility.yul\":14875:14941   */\n      tag_151\n      jump\t// in\n    tag_355:\n        /* \"#utility.yul\":14866:14941   */\n      swap1\n      pop\n        /* \"#utility.yul\":14964:14970   */\n      dup3\n        /* \"#utility.yul\":14957:14962   */\n      dup2\n        /* \"#utility.yul\":14950:14971   */\n      mstore\n        /* \"#utility.yul\":15002:15006   */\n      0x20\n        /* \"#utility.yul\":14995:15000   */\n      dup2\n        /* \"#utility.yul\":14991:15007   */\n      add\n        /* \"#utility.yul\":15040:15043   */\n      dup5\n        /* \"#utility.yul\":15031:15037   */\n      dup5\n        /* \"#utility.yul\":15026:15029   */\n      dup5\n        /* \"#utility.yul\":15022:15038   */\n      add\n        /* \"#utility.yul\":15019:15044   */\n      gt\n        /* \"#utility.yul\":15016:15128   */\n      iszero\n      tag_357\n      jumpi\n        /* \"#utility.yul\":15047:15126   */\n      tag_358\n      tag_148\n      jump\t// in\n    tag_358:\n        /* \"#utility.yul\":15016:15128   */\n    tag_357:\n        /* \"#utility.yul\":15137:15189   */\n      tag_359\n        /* \"#utility.yul\":15182:15188   */\n      dup5\n        /* \"#utility.yul\":15177:15180   */\n      dup3\n        /* \"#utility.yul\":15172:15175   */\n      dup6\n        /* \"#utility.yul\":15137:15189   */\n      tag_144\n      jump\t// in\n    tag_359:\n        /* \"#utility.yul\":14856:15195   */\n      pop\n        /* \"#utility.yul\":14761:15195   */\n      swap4\n      swap3\n      pop\n      pop\n      pop\n      jump\t// out\n        /* \"#utility.yul\":15215:15570   */\n    tag_185:\n        /* \"#utility.yul\":15282:15287   */\n      0x00\n        /* \"#utility.yul\":15331:15334   */\n      dup3\n        /* \"#utility.yul\":15324:15328   */\n      0x1f\n        /* \"#utility.yul\":15316:15322   */\n      dup4\n        /* \"#utility.yul\":15312:15329   */\n      add\n        /* \"#utility.yul\":15308:15335   */\n      slt\n        /* \"#utility.yul\":15298:15420   */\n      tag_361\n      jumpi\n        /* \"#utility.yul\":15339:15418   */\n      tag_362\n      tag_147\n      jump\t// in\n    tag_362:\n        /* \"#utility.yul\":15298:15420   */\n    tag_361:\n        /* \"#utility.yul\":15449:15455   */\n      dup2\n        /* \"#utility.yul\":15443:15456   */\n      mload\n        /* \"#utility.yul\":15474:15564   */\n      tag_363\n        /* \"#utility.yul\":15560:15563   */\n      dup5\n        /* \"#utility.yul\":15552:15558   */\n      dup3\n        /* \"#utility.yul\":15545:15549   */\n      0x20\n        /* \"#utility.yul\":15537:15543   */\n      dup7\n        /* \"#utility.yul\":15533:15550   */\n      add\n        /* \"#utility.yul\":15474:15564   */\n      tag_184\n      jump\t// in\n    tag_363:\n        /* \"#utility.yul\":15465:15564   */\n      swap2\n      pop\n        /* \"#utility.yul\":15288:15570   */\n      pop\n        /* \"#utility.yul\":15215:15570   */\n      swap3\n      swap2\n      pop\n      pop\n      jump\t// out\n        /* \"#utility.yul\":15576:16100   */\n    tag_131:\n        /* \"#utility.yul\":15656:15662   */\n      0x00\n        /* \"#utility.yul\":15705:15707   */\n      0x20\n        /* \"#utility.yul\":15693:15702   */\n      dup3\n        /* \"#utility.yul\":15684:15691   */\n      dup5\n        /* \"#utility.yul\":15680:15703   */\n      sub\n        /* \"#utility.yul\":15676:15708   */\n      slt\n        /* \"#utility.yul\":15673:15792   */\n      iszero\n      tag_365\n      jumpi\n        /* \"#utility.yul\":15711:15790   */\n      tag_366\n      tag_138\n      jump\t// in\n    tag_366:\n        /* \"#utility.yul\":15673:15792   */\n    tag_365:\n        /* \"#utility.yul\":15852:15853   */\n      0x00\n        /* \"#utility.yul\":15841:15850   */\n      dup3\n        /* \"#utility.yul\":15837:15854   */\n      add\n        /* \"#utility.yul\":15831:15855   */\n      mload\n        /* \"#utility.yul\":15882:15900   */\n      0xffffffffffffffff\n        /* \"#utility.yul\":15874:15880   */\n      dup2\n        /* \"#utility.yul\":15871:15901   */\n      gt\n        /* \"#utility.yul\":15868:15985   */\n      iszero\n      tag_367\n      jumpi\n        /* \"#utility.yul\":15904:15983   */\n      tag_368\n      tag_139\n      jump\t// in\n    tag_368:\n        /* \"#utility.yul\":15868:15985   */\n    tag_367:\n        /* \"#utility.yul\":16009:16083   */\n      tag_369\n        /* \"#utility.yul\":16075:16082   */\n      dup5\n        /* \"#utility.yul\":16066:16072   */\n      dup3\n        /* \"#utility.yul\":16055:16064   */\n      dup6\n        /* \"#utility.yul\":16051:16073   */\n      add\n        /* \"#utility.yul\":16009:16083   */\n      tag_185\n      jump\t// in\n    tag_369:\n        /* \"#utility.yul\":15999:16083   */\n      swap2\n      pop\n        /* \"#utility.yul\":15802:16093   */\n      pop\n        /* \"#utility.yul\":15576:16100   */\n      swap3\n      swap2\n      pop\n      pop\n      jump\t// out\n\n    auxdata: 0xa2646970667358221220c8668eee64e6fd80775cf477e950cf1f41b2866f559f74cd29fa90c81895467064736f6c634300081a0033\n}\n",
				"bytecode": {
					"linkReferences": {},
					"object": "6080604052348015600e575f80fd5b50610f798061001c5f395ff3fe608060405234801561000f575f80fd5b50600436106100fe575f3560e01c80639e7a13ad11610095578063bca353be11610064578063bca353be14610275578063c19d93fb1461027f578063cb6a33f81461029d578063e0819c9a146102cd576100fe565b80639e7a13ad146101ee578063a621d15e1461021f578063a7e1a3641461023d578063b633941814610259576100fe565b80636f760f41116100d15780636f760f411461018c5780638701f8ca146101a85780638fda356d146101c657806399b8390a146101d0576100fe565b80630cd2636e1461010257806322f3e2d41461012057806329cd1d961461013e5780633a32b5491461016e575b5f80fd5b61010a6102eb565b60405161011791906106c5565b60405180910390f35b610128610327565b60405161013591906106f8565b60405180910390f35b6101586004803603810190610153919061074c565b610362565b60405161016591906106c5565b60405180910390f35b610176610382565b60405161018391906107e7565b60405180910390f35b6101a660048036038101906101a19190610933565b6103bf565b005b6101b0610420565b6040516101bd91906107e7565b60405180910390f35b6101ce61042f565b005b6101d861045a565b6040516101e59190610a44565b60405180910390f35b6102086004803603810190610203919061074c565b6104b0565b604051610216929190610a64565b60405180910390f35b610227610565565b60405161023491906106c5565b60405180910390f35b6102576004803603810190610252919061074c565b61056d565b005b610273600480360381019061026e919061074c565b610596565b005b61027d61059f565b005b6102876105cb565b6040516102949190610b05565b60405180910390f35b6102b760048036038101906102b2919061074c565b6105dd565b6040516102c491906106f8565b60405180910390f35b6102d56105f9565b6040516102e291906107e7565b60405180910390f35b5f805f90505f600190505b5f54811161031f57808261030a9190610b4b565b9150808061031790610b7e565b9150506102f6565b508091505090565b5f80600181111561033b5761033a610a92565b5b60035f9054906101000a900460ff16600181111561035c5761035b610a92565b5b14905090565b60018181548110610371575f80fd5b905f5260205f20015f915090505481565b60606040518060400160405280601c81526020017f5468697320697320616e2065787465726e616c2066756e6374696f6e00000000815250905090565b6002604051806040016040528084815260200183815250908060018154018082558091505060019003905f5260205f2090600202015f909190919091505f820151815f01908161040f9190610dbf565b506020820151816001015550505050565b606061042a610670565b905090565b5f60035f6101000a81548160ff0219169083600181111561045357610452610a92565b5b0217905550565b606060018054806020026020016040519081016040528092919081815260200182805480156104a657602002820191905f5260205f20905b815481526020019060010190808311610492575b5050505050905090565b600281815481106104bf575f80fd5b905f5260205f2090600202015f91509050805f0180546104de90610bf2565b80601f016020809104026020016040519081016040528092919081815260200182805461050a90610bf2565b80156105555780601f1061052c57610100808354040283529160200191610555565b820191905f5260205f20905b81548152906001019060200180831161053857829003601f168201915b5050505050908060010154905082565b5f8054905090565b600181908060018154018082558091505060019003905f5260205f20015f909190919091505550565b805f8190555050565b600160035f6101000a81548160ff021916908360018111156105c4576105c3610a92565b5b0217905550565b60035f9054906101000a900460ff1681565b5f815f5411156105f057600190506105f4565b5f90505b919050565b60603073ffffffffffffffffffffffffffffffffffffffff16633a32b5496040518163ffffffff1660e01b81526004015f60405180830381865afa158015610643573d5f803e3d5ffd5b505050506040513d5f823e3d601f19601f8201168201806040525081019061066b9190610efc565b905090565b60606040518060400160405280601c81526020017f5468697320697320616e20696e7465726e616c2066756e6374696f6e00000000815250905090565b5f819050919050565b6106bf816106ad565b82525050565b5f6020820190506106d85f8301846106b6565b92915050565b5f8115159050919050565b6106f2816106de565b82525050565b5f60208201905061070b5f8301846106e9565b92915050565b5f604051905090565b5f80fd5b5f80fd5b61072b816106ad565b8114610735575f80fd5b50565b5f8135905061074681610722565b92915050565b5f602082840312156107615761076061071a565b5b5f61076e84828501610738565b91505092915050565b5f81519050919050565b5f82825260208201905092915050565b8281835e5f83830152505050565b5f601f19601f8301169050919050565b5f6107b982610777565b6107c38185610781565b93506107d3818560208601610791565b6107dc8161079f565b840191505092915050565b5f6020820190508181035f8301526107ff81846107af565b905092915050565b5f80fd5b5f80fd5b7f4e487b71000000000000000000000000000000000000000000000000000000005f52604160045260245ffd5b6108458261079f565b810181811067ffffffffffffffff821117156108645761086361080f565b5b80604052505050565b5f610876610711565b9050610882828261083c565b919050565b5f67ffffffffffffffff8211156108a1576108a061080f565b5b6108aa8261079f565b9050602081019050919050565b828183375f83830152505050565b5f6108d76108d284610887565b61086d565b9050828152602081018484840111156108f3576108f261080b565b5b6108fe8482856108b7565b509392505050565b5f82601f83011261091a57610919610807565b5b813561092a8482602086016108c5565b91505092915050565b5f80604083850312156109495761094861071a565b5b5f83013567ffffffffffffffff8111156109665761096561071e565b5b61097285828601610906565b925050602061098385828601610738565b9150509250929050565b5f81519050919050565b5f82825260208201905092915050565b5f819050602082019050919050565b6109bf816106ad565b82525050565b5f6109d083836109b6565b60208301905092915050565b5f602082019050919050565b5f6109f28261098d565b6109fc8185610997565b9350610a07836109a7565b805f5b83811015610a37578151610a1e88826109c5565b9750610a29836109dc565b925050600181019050610a0a565b5085935050505092915050565b5f6020820190508181035f830152610a5c81846109e8565b905092915050565b5f6040820190508181035f830152610a7c81856107af565b9050610a8b60208301846106b6565b9392505050565b7f4e487b71000000000000000000000000000000000000000000000000000000005f52602160045260245ffd5b60028110610ad057610acf610a92565b5b50565b5f819050610ae082610abf565b919050565b5f610aef82610ad3565b9050919050565b610aff81610ae5565b82525050565b5f602082019050610b185f830184610af6565b92915050565b7f4e487b71000000000000000000000000000000000000000000000000000000005f52601160045260245ffd5b5f610b55826106ad565b9150610b60836106ad565b9250828201905080821115610b7857610b77610b1e565b5b92915050565b5f610b88826106ad565b91507fffffffffffffffffffffffffffffffffffffffffffffffffffffffffffffffff8203610bba57610bb9610b1e565b5b600182019050919050565b7f4e487b71000000000000000000000000000000000000000000000000000000005f52602260045260245ffd5b5f6002820490506001821680610c0957607f821691505b602082108103610c1c57610c1b610bc5565b5b50919050565b5f819050815f5260205f209050919050565b5f6020601f8301049050919050565b5f82821b905092915050565b5f60088302610c7e7fffffffffffffffffffffffffffffffffffffffffffffffffffffffffffffffff82610c43565b610c888683610c43565b95508019841693508086168417925050509392505050565b5f819050919050565b5f610cc3610cbe610cb9846106ad565b610ca0565b6106ad565b9050919050565b5f819050919050565b610cdc83610ca9565b610cf0610ce882610cca565b848454610c4f565b825550505050565b5f90565b610d04610cf8565b610d0f818484610cd3565b505050565b5b81811015610d3257610d275f82610cfc565b600181019050610d15565b5050565b601f821115610d7757610d4881610c22565b610d5184610c34565b81016020851015610d60578190505b610d74610d6c85610c34565b830182610d14565b50505b505050565b5f82821c905092915050565b5f610d975f1984600802610d7c565b1980831691505092915050565b5f610daf8383610d88565b9150826002028217905092915050565b610dc882610777565b67ffffffffffffffff811115610de157610de061080f565b5b610deb8254610bf2565b610df6828285610d36565b5f60209050601f831160018114610e27575f8415610e15578287015190505b610e1f8582610da4565b865550610e86565b601f198416610e3586610c22565b5f5b82811015610e5c57848901518255600182019150602085019450602081019050610e37565b86831015610e795784890151610e75601f891682610d88565b8355505b6001600288020188555050505b505050505050565b5f610ea0610e9b84610887565b61086d565b905082815260208101848484011115610ebc57610ebb61080b565b5b610ec7848285610791565b509392505050565b5f82601f830112610ee357610ee2610807565b5b8151610ef3848260208601610e8e565b91505092915050565b5f60208284031215610f1157610f1061071a565b5b5f82015167ffffffffffffffff811115610f2e57610f2d61071e565b5b610f3a84828501610ecf565b9150509291505056fea2646970667358221220c8668eee64e6fd80775cf477e950cf1f41b2866f559f74cd29fa90c81895467064736f6c634300081a0033",
					"opcodes": "PUSH1 0x80 PUSH1 0x40 MSTORE CALLVALUE DUP1 ISZERO PUSH1 0xE JUMPI PUSH0 DUP1 REVERT JUMPDEST POP PUSH2 0xF79 DUP1 PUSH2 0x1C PUSH0 CODECOPY PUSH0 RETURN INVALID PUSH1 0x80 PUSH1 0x40 MSTORE CALLVALUE DUP1 ISZERO PUSH2 0xF JUMPI PUSH0 DUP1 REVERT JUMPDEST POP PUSH1 0x4 CALLDATASIZE LT PUSH2 0xFE JUMPI PUSH0 CALLDATALOAD PUSH1 0xE0 SHR DUP1 PUSH4 0x9E7A13AD GT PUSH2 0x95 JUMPI DUP1 PUSH4 0xBCA353BE GT PUSH2 0x64 JUMPI DUP1 PUSH4 0xBCA353BE EQ PUSH2 0x275 JUMPI DUP1 PUSH4 0xC19D93FB EQ PUSH2 0x27F JUMPI DUP1 PUSH4 0xCB6A33F8 EQ PUSH2 0x29D JUMPI DUP1 PUSH4 0xE0819C9A EQ PUSH2 0x2CD JUMPI PUSH2 0xFE JUMP JUMPDEST DUP1 PUSH4 0x9E7A13AD EQ PUSH2 0x1EE JUMPI DUP1 PUSH4 0xA621D15E EQ PUSH2 0x21F JUMPI DUP1 PUSH4 0xA7E1A364 EQ PUSH2 0x23D JUMPI DUP1 PUSH4 0xB6339418 EQ PUSH2 0x259 JUMPI PUSH2 0xFE JUMP JUMPDEST DUP1 PUSH4 0x6F760F41 GT PUSH2 0xD1 JUMPI DUP1 PUSH4 0x6F760F41 EQ PUSH2 0x18C JUMPI DUP1 PUSH4 0x8701F8CA EQ PUSH2 0x1A8 JUMPI DUP1 PUSH4 0x8FDA356D EQ PUSH2 0x1C6 JUMPI DUP1 PUSH4 0x99B8390A EQ PUSH2 0x1D0 JUMPI PUSH2 0xFE JUMP JUMPDEST DUP1 PUSH4 0xCD2636E EQ PUSH2 0x102 JUMPI DUP1 PUSH4 0x22F3E2D4 EQ PUSH2 0x120 JUMPI DUP1 PUSH4 0x29CD1D96 EQ PUSH2 0x13E JUMPI DUP1 PUSH4 0x3A32B549 EQ PUSH2 0x16E JUMPI JUMPDEST PUSH0 DUP1 REVERT JUMPDEST PUSH2 0x10A PUSH2 0x2EB JUMP JUMPDEST PUSH1 0x40 MLOAD PUSH2 0x117 SWAP2 SWAP1 PUSH2 0x6C5 JUMP JUMPDEST PUSH1 0x40 MLOAD DUP1 SWAP2 SUB SWAP1 RETURN JUMPDEST PUSH2 0x128 PUSH2 0x327 JUMP JUMPDEST PUSH1 0x40 MLOAD PUSH2 0x135 SWAP2 SWAP1 PUSH2 0x6F8 JUMP JUMPDEST PUSH1 0x40 MLOAD DUP1 SWAP2 SUB SWAP1 RETURN JUMPDEST PUSH2 0x158 PUSH1 0x4 DUP1 CALLDATASIZE SUB DUP2 ADD SWAP1 PUSH2 0x153 SWAP2 SWAP1 PUSH2 0x74C JUMP JUMPDEST PUSH2 0x362 JUMP JUMPDEST PUSH1 0x40 MLOAD PUSH2 0x165 SWAP2 SWAP1 PUSH2 0x6C5 JUMP JUMPDEST PUSH1 0x40 MLOAD DUP1 SWAP2 SUB SWAP1 RETURN JUMPDEST PUSH2 0x176 PUSH2 0x382 JUMP JUMPDEST PUSH1 0x40 MLOAD PUSH2 0x183 SWAP2 SWAP1 PUSH2 0x7E7 JUMP JUMPDEST PUSH1 0x40 MLOAD DUP1 SWAP2 SUB SWAP1 RETURN JUMPDEST PUSH2 0x1A6 PUSH1 0x4 DUP1 CALLDATASIZE SUB DUP2 ADD SWAP1 PUSH2 0x1A1 SWAP2 SWAP1 PUSH2 0x933 JUMP JUMPDEST PUSH2 0x3BF JUMP JUMPDEST STOP JUMPDEST PUSH2 0x1B0 PUSH2 0x420 JUMP JUMPDEST PUSH1 0x40 MLOAD PUSH2 0x1BD SWAP2 SWAP1 PUSH2 0x7E7 JUMP JUMPDEST PUSH1 0x40 MLOAD DUP1 SWAP2 SUB SWAP1 RETURN JUMPDEST PUSH2 0x1CE PUSH2 0x42F JUMP JUMPDEST STOP JUMPDEST PUSH2 0x1D8 PUSH2 0x45A JUMP JUMPDEST PUSH1 0x40 MLOAD PUSH2 0x1E5 SWAP2 SWAP1 PUSH2 0xA44 JUMP JUMPDEST PUSH1 0x40 MLOAD DUP1 SWAP2 SUB SWAP1 RETURN JUMPDEST PUSH2 0x208 PUSH1 0x4 DUP1 CALLDATASIZE SUB DUP2 ADD SWAP1 PUSH2 0x203 SWAP2 SWAP1 PUSH2 0x74C JUMP JUMPDEST PUSH2 0x4B0 JUMP JUMPDEST PUSH1 0x40 MLOAD PUSH2 0x216 SWAP3 SWAP2 SWAP1 PUSH2 0xA64 JUMP JUMPDEST PUSH1 0x40 MLOAD DUP1 SWAP2 SUB SWAP1 RETURN JUMPDEST PUSH2 0x227 PUSH2 0x565 JUMP JUMPDEST PUSH1 0x40 MLOAD PUSH2 0x234 SWAP2 SWAP1 PUSH2 0x6C5 JUMP JUMPDEST PUSH1 0x40 MLOAD DUP1 SWAP2 SUB SWAP1 RETURN JUMPDEST PUSH2 0x257 PUSH1 0x4 DUP1 CALLDATASIZE SUB DUP2 ADD SWAP1 PUSH2 0x252 SWAP2 SWAP1 PUSH2 0x74C JUMP JUMPDEST PUSH2 0x56D JUMP JUMPDEST STOP JUMPDEST PUSH2 0x273 PUSH1 0x4 DUP1 CALLDATASIZE SUB DUP2 ADD SWAP1 PUSH2 0x26E SWAP2 SWAP1 PUSH2 0x74C JUMP JUMPDEST PUSH2 0x596 JUMP JUMPDEST STOP JUMPDEST PUSH2 0x27D PUSH2 0x59F JUMP JUMPDEST STOP JUMPDEST PUSH2 0x287 PUSH2 0x5CB JUMP JUMPDEST PUSH1 0x40 MLOAD PUSH2 0x294 SWAP2 SWAP1 PUSH2 0xB05 JUMP JUMPDEST PUSH1 0x40 MLOAD DUP1 SWAP2 SUB SWAP1 RETURN JUMPDEST PUSH2 0x2B7 PUSH1 0x4 DUP1 CALLDATASIZE SUB DUP2 ADD SWAP1 PUSH2 0x2B2 SWAP2 SWAP1 PUSH2 0x74C JUMP JUMPDEST PUSH2 0x5DD JUMP JUMPDEST PUSH1 0x40 MLOAD PUSH2 0x2C4 SWAP2 SWAP1 PUSH2 0x6F8 JUMP JUMPDEST PUSH1 0x40 MLOAD DUP1 SWAP2 SUB SWAP1 RETURN JUMPDEST PUSH2 0x2D5 PUSH2 0x5F9 JUMP JUMPDEST PUSH1 0x40 MLOAD PUSH2 0x2E2 SWAP2 SWAP1 PUSH2 0x7E7 JUMP JUMPDEST PUSH1 0x40 MLOAD DUP1 SWAP2 SUB SWAP1 RETURN JUMPDEST PUSH0 DUP1 PUSH0 SWAP1 POP PUSH0 PUSH1 0x1 SWAP1 POP JUMPDEST PUSH0 SLOAD DUP2 GT PUSH2 0x31F JUMPI DUP1 DUP3 PUSH2 0x30A SWAP2 SWAP1 PUSH2 0xB4B JUMP JUMPDEST SWAP2 POP DUP1 DUP1 PUSH2 0x317 SWAP1 PUSH2 0xB7E JUMP JUMPDEST SWAP2 POP POP PUSH2 0x2F6 JUMP JUMPDEST POP DUP1 SWAP2 POP POP SWAP1 JUMP JUMPDEST PUSH0 DUP1 PUSH1 0x1 DUP2 GT ISZERO PUSH2 0x33B JUMPI PUSH2 0x33A PUSH2 0xA92 JUMP JUMPDEST JUMPDEST PUSH1 0x3 PUSH0 SWAP1 SLOAD SWAP1 PUSH2 0x100 EXP SWAP1 DIV PUSH1 0xFF AND PUSH1 0x1 DUP2 GT ISZERO PUSH2 0x35C JUMPI PUSH2 0x35B PUSH2 0xA92 JUMP JUMPDEST JUMPDEST EQ SWAP1 POP SWAP1 JUMP JUMPDEST PUSH1 0x1 DUP2 DUP2 SLOAD DUP2 LT PUSH2 0x371 JUMPI PUSH0 DUP1 REVERT JUMPDEST SWAP1 PUSH0 MSTORE PUSH1 0x20 PUSH0 KECCAK256 ADD PUSH0 SWAP2 POP SWAP1 POP SLOAD DUP2 JUMP JUMPDEST PUSH1 0x60 PUSH1 0x40 MLOAD DUP1 PUSH1 0x40 ADD PUSH1 0x40 MSTORE DUP1 PUSH1 0x1C DUP2 MSTORE PUSH1 0x20 ADD PUSH32 0x5468697320697320616E2065787465726E616C2066756E6374696F6E00000000 DUP2 MSTORE POP SWAP1 POP SWAP1 JUMP JUMPDEST PUSH1 0x2 PUSH1 0x40 MLOAD DUP1 PUSH1 0x40 ADD PUSH1 0x40 MSTORE DUP1 DUP5 DUP2 MSTORE PUSH1 0x20 ADD DUP4 DUP2 MSTORE POP SWAP1 DUP1 PUSH1 0x1 DUP2 SLOAD ADD DUP1 DUP3 SSTORE DUP1 SWAP2 POP POP PUSH1 0x1 SWAP1 SUB SWAP1 PUSH0 MSTORE PUSH1 0x20 PUSH0 KECCAK256 SWAP1 PUSH1 0x2 MUL ADD PUSH0 SWAP1 SWAP2 SWAP1 SWAP2 SWAP1 SWAP2 POP PUSH0 DUP3 ADD MLOAD DUP2 PUSH0 ADD SWAP1 DUP2 PUSH2 0x40F SWAP2 SWAP1 PUSH2 0xDBF JUMP JUMPDEST POP PUSH1 0x20 DUP3 ADD MLOAD DUP2 PUSH1 0x1 ADD SSTORE POP POP POP POP JUMP JUMPDEST PUSH1 0x60 PUSH2 0x42A PUSH2 0x670 JUMP JUMPDEST SWAP1 POP SWAP1 JUMP JUMPDEST PUSH0 PUSH1 0x3 PUSH0 PUSH2 0x100 EXP DUP2 SLOAD DUP2 PUSH1 0xFF MUL NOT AND SWAP1 DUP4 PUSH1 0x1 DUP2 GT ISZERO PUSH2 0x453 JUMPI PUSH2 0x452 PUSH2 0xA92 JUMP JUMPDEST JUMPDEST MUL OR SWAP1 SSTORE POP JUMP JUMPDEST PUSH1 0x60 PUSH1 0x1 DUP1 SLOAD DUP1 PUSH1 0x20 MUL PUSH1 0x20 ADD PUSH1 0x40 MLOAD SWAP1 DUP2 ADD PUSH1 0x40 MSTORE DUP1 SWAP3 SWAP2 SWAP1 DUP2 DUP2 MSTORE PUSH1 0x20 ADD DUP3 DUP1 SLOAD DUP1 ISZERO PUSH2 0x4A6 JUMPI PUSH1 0x20 MUL DUP3 ADD SWAP2 SWAP1 PUSH0 MSTORE PUSH1 0x20 PUSH0 KECCAK256 SWAP1 JUMPDEST DUP2 SLOAD DUP2 MSTORE PUSH1 0x20 ADD SWAP1 PUSH1 0x1 ADD SWAP1 DUP1 DUP4 GT PUSH2 0x492 JUMPI JUMPDEST POP POP POP POP POP SWAP1 POP SWAP1 JUMP JUMPDEST PUSH1 0x2 DUP2 DUP2 SLOAD DUP2 LT PUSH2 0x4BF JUMPI PUSH0 DUP1 REVERT JUMPDEST SWAP1 PUSH0 MSTORE PUSH1 0x20 PUSH0 KECCAK256 SWAP1 PUSH1 0x2 MUL ADD PUSH0 SWAP2 POP SWAP1 POP DUP1 PUSH0 ADD DUP1 SLOAD PUSH2 0x4DE SWAP1 PUSH2 0xBF2 JUMP JUMPDEST DUP1 PUSH1 0x1F ADD PUSH1 0x20 DUP1 SWAP2 DIV MUL PUSH1 0x20 ADD PUSH1 0x40 MLOAD SWAP1 DUP2 ADD PUSH1 0x40 MSTORE DUP1 SWAP3 SWAP2 SWAP1 DUP2 DUP2 MSTORE PUSH1 0x20 ADD DUP3 DUP1 SLOAD PUSH2 0x50A SWAP1 PUSH2 0xBF2 JUMP JUMPDEST DUP1 ISZERO PUSH2 0x555 JUMPI DUP1 PUSH1 0x1F LT PUSH2 0x52C JUMPI PUSH2 0x100 DUP1 DUP4 SLOAD DIV MUL DUP4 MSTORE SWAP2 PUSH1 0x20 ADD SWAP2 PUSH2 0x555 JUMP JUMPDEST DUP3 ADD SWAP2 SWAP1 PUSH0 MSTORE PUSH1 0x20 PUSH0 KECCAK256 SWAP1 JUMPDEST DUP2 SLOAD DUP2 MSTORE SWAP1 PUSH1 0x1 ADD SWAP1 PUSH1 0x20 ADD DUP1 DUP4 GT PUSH2 0x538 JUMPI DUP3 SWAP1 SUB PUSH1 0x1F AND DUP3 ADD SWAP2 JUMPDEST POP POP POP POP POP SWAP1 DUP1 PUSH1 0x1 ADD SLOAD SWAP1 POP DUP3 JUMP JUMPDEST PUSH0 DUP1 SLOAD SWAP1 POP SWAP1 JUMP JUMPDEST PUSH1 0x1 DUP2 SWAP1 DUP1 PUSH1 0x1 DUP2 SLOAD ADD DUP1 DUP3 SSTORE DUP1 SWAP2 POP POP PUSH1 0x1 SWAP1 SUB SWAP1 PUSH0 MSTORE PUSH1 0x20 PUSH0 KECCAK256 ADD PUSH0 SWAP1 SWAP2 SWAP1 SWAP2 SWAP1 SWAP2 POP SSTORE POP JUMP JUMPDEST DUP1 PUSH0 DUP2 SWAP1 SSTORE POP POP JUMP JUMPDEST PUSH1 0x1 PUSH1 0x3 PUSH0 PUSH2 0x100 EXP DUP2 SLOAD DUP2 PUSH1 0xFF MUL NOT AND SWAP1 DUP4 PUSH1 0x1 DUP2 GT ISZERO PUSH2 0x5C4 JUMPI PUSH2 0x5C3 PUSH2 0xA92 JUMP JUMPDEST JUMPDEST MUL OR SWAP1 SSTORE POP JUMP JUMPDEST PUSH1 0x3 PUSH0 SWAP1 SLOAD SWAP1 PUSH2 0x100 EXP SWAP1 DIV PUSH1 0xFF AND DUP2 JUMP JUMPDEST PUSH0 DUP2 PUSH0 SLOAD GT ISZERO PUSH2 0x5F0 JUMPI PUSH1 0x1 SWAP1 POP PUSH2 0x5F4 JUMP JUMPDEST PUSH0 SWAP1 POP JUMPDEST SWAP2 SWAP1 POP JUMP JUMPDEST PUSH1 0x60 ADDRESS PUSH20 0xFFFFFFFFFFFFFFFFFFFFFFFFFFFFFFFFFFFFFFFF AND PUSH4 0x3A32B549 PUSH1 0x40 MLOAD DUP2 PUSH4 0xFFFFFFFF AND PUSH1 0xE0 SHL DUP2 MSTORE PUSH1 0x4 ADD PUSH0 PUSH1 0x40 MLOAD DUP1 DUP4 SUB DUP2 DUP7 GAS STATICCALL ISZERO DUP1 ISZERO PUSH2 0x643 JUMPI RETURNDATASIZE PUSH0 DUP1 RETURNDATACOPY RETURNDATASIZE PUSH0 REVERT JUMPDEST POP POP POP POP PUSH1 0x40 MLOAD RETURNDATASIZE PUSH0 DUP3 RETURNDATACOPY RETURNDATASIZE PUSH1 0x1F NOT PUSH1 0x1F DUP3 ADD AND DUP3 ADD DUP1 PUSH1 0x40 MSTORE POP DUP2 ADD SWAP1 PUSH2 0x66B SWAP2 SWAP1 PUSH2 0xEFC JUMP JUMPDEST SWAP1 POP SWAP1 JUMP JUMPDEST PUSH1 0x60 PUSH1 0x40 MLOAD DUP1 PUSH1 0x40 ADD PUSH1 0x40 MSTORE DUP1 PUSH1 0x1C DUP2 MSTORE PUSH1 0x20 ADD PUSH32 0x5468697320697320616E20696E7465726E616C2066756E6374696F6E00000000 DUP2 MSTORE POP SWAP1 POP SWAP1 JUMP JUMPDEST PUSH0 DUP2 SWAP1 POP SWAP2 SWAP1 POP JUMP JUMPDEST PUSH2 0x6BF DUP2 PUSH2 0x6AD JUMP JUMPDEST DUP3 MSTORE POP POP JUMP JUMPDEST PUSH0 PUSH1 0x20 DUP3 ADD SWAP1 POP PUSH2 0x6D8 PUSH0 DUP4 ADD DUP5 PUSH2 0x6B6 JUMP JUMPDEST SWAP3 SWAP2 POP POP JUMP JUMPDEST PUSH0 DUP2 ISZERO ISZERO SWAP1 POP SWAP2 SWAP1 POP JUMP JUMPDEST PUSH2 0x6F2 DUP2 PUSH2 0x6DE JUMP JUMPDEST DUP3 MSTORE POP POP JUMP JUMPDEST PUSH0 PUSH1 0x20 DUP3 ADD SWAP1 POP PUSH2 0x70B PUSH0 DUP4 ADD DUP5 PUSH2 0x6E9 JUMP JUMPDEST SWAP3 SWAP2 POP POP JUMP JUMPDEST PUSH0 PUSH1 0x40 MLOAD SWAP1 POP SWAP1 JUMP JUMPDEST PUSH0 DUP1 REVERT JUMPDEST PUSH0 DUP1 REVERT JUMPDEST PUSH2 0x72B DUP2 PUSH2 0x6AD JUMP JUMPDEST DUP2 EQ PUSH2 0x735 JUMPI PUSH0 DUP1 REVERT JUMPDEST POP JUMP JUMPDEST PUSH0 DUP2 CALLDATALOAD SWAP1 POP PUSH2 0x746 DUP2 PUSH2 0x722 JUMP JUMPDEST SWAP3 SWAP2 POP POP JUMP JUMPDEST PUSH0 PUSH1 0x20 DUP3 DUP5 SUB SLT ISZERO PUSH2 0x761 JUMPI PUSH2 0x760 PUSH2 0x71A JUMP JUMPDEST JUMPDEST PUSH0 PUSH2 0x76E DUP5 DUP3 DUP6 ADD PUSH2 0x738 JUMP JUMPDEST SWAP2 POP POP SWAP3 SWAP2 POP POP JUMP JUMPDEST PUSH0 DUP2 MLOAD SWAP1 POP SWAP2 SWAP1 POP JUMP JUMPDEST PUSH0 DUP3 DUP3 MSTORE PUSH1 0x20 DUP3 ADD SWAP1 POP SWAP3 SWAP2 POP POP JUMP JUMPDEST DUP3 DUP2 DUP4 MCOPY PUSH0 DUP4 DUP4 ADD MSTORE POP POP POP JUMP JUMPDEST PUSH0 PUSH1 0x1F NOT PUSH1 0x1F DUP4 ADD AND SWAP1 POP SWAP2 SWAP1 POP JUMP JUMPDEST PUSH0 PUSH2 0x7B9 DUP3 PUSH2 0x777 JUMP JUMPDEST PUSH2 0x7C3 DUP2 DUP6 PUSH2 0x781 JUMP JUMPDEST SWAP4 POP PUSH2 0x7D3 DUP2 DUP6 PUSH1 0x20 DUP7 ADD PUSH2 0x791 JUMP JUMPDEST PUSH2 0x7DC DUP2 PUSH2 0x79F JUMP JUMPDEST DUP5 ADD SWAP2 POP POP SWAP3 SWAP2 POP POP JUMP JUMPDEST PUSH0 PUSH1 0x20 DUP3 ADD SWAP1 POP DUP2 DUP2 SUB PUSH0 DUP4 ADD MSTORE PUSH2 0x7FF DUP2 DUP5 PUSH2 0x7AF JUMP JUMPDEST SWAP1 POP SWAP3 SWAP2 POP POP JUMP JUMPDEST PUSH0 DUP1 REVERT JUMPDEST PUSH0 DUP1 REVERT JUMPDEST PUSH32 0x4E487B7100000000000000000000000000000000000000000000000000000000 PUSH0 MSTORE PUSH1 0x41 PUSH1 0x4 MSTORE PUSH1 0x24 PUSH0 REVERT JUMPDEST PUSH2 0x845 DUP3 PUSH2 0x79F JUMP JUMPDEST DUP2 ADD DUP2 DUP2 LT PUSH8 0xFFFFFFFFFFFFFFFF DUP3 GT OR ISZERO PUSH2 0x864 JUMPI PUSH2 0x863 PUSH2 0x80F JUMP JUMPDEST JUMPDEST DUP1 PUSH1 0x40 MSTORE POP POP POP JUMP JUMPDEST PUSH0 PUSH2 0x876 PUSH2 0x711 JUMP JUMPDEST SWAP1 POP PUSH2 0x882 DUP3 DUP3 PUSH2 0x83C JUMP JUMPDEST SWAP2 SWAP1 POP JUMP JUMPDEST PUSH0 PUSH8 0xFFFFFFFFFFFFFFFF DUP3 GT ISZERO PUSH2 0x8A1 JUMPI PUSH2 0x8A0 PUSH2 0x80F JUMP JUMPDEST JUMPDEST PUSH2 0x8AA DUP3 PUSH2 0x79F JUMP JUMPDEST SWAP1 POP PUSH1 0x20 DUP2 ADD SWAP1 POP SWAP2 SWAP1 POP JUMP JUMPDEST DUP3 DUP2 DUP4 CALLDATACOPY PUSH0 DUP4 DUP4 ADD MSTORE POP POP POP JUMP JUMPDEST PUSH0 PUSH2 0x8D7 PUSH2 0x8D2 DUP5 PUSH2 0x887 JUMP JUMPDEST PUSH2 0x86D JUMP JUMPDEST SWAP1 POP DUP3 DUP2 MSTORE PUSH1 0x20 DUP2 ADD DUP5 DUP5 DUP5 ADD GT ISZERO PUSH2 0x8F3 JUMPI PUSH2 0x8F2 PUSH2 0x80B JUMP JUMPDEST JUMPDEST PUSH2 0x8FE DUP5 DUP3 DUP6 PUSH2 0x8B7 JUMP JUMPDEST POP SWAP4 SWAP3 POP POP POP JUMP JUMPDEST PUSH0 DUP3 PUSH1 0x1F DUP4 ADD SLT PUSH2 0x91A JUMPI PUSH2 0x919 PUSH2 0x807 JUMP JUMPDEST JUMPDEST DUP2 CALLDATALOAD PUSH2 0x92A DUP5 DUP3 PUSH1 0x20 DUP7 ADD PUSH2 0x8C5 JUMP JUMPDEST SWAP2 POP POP SWAP3 SWAP2 POP POP JUMP JUMPDEST PUSH0 DUP1 PUSH1 0x40 DUP4 DUP6 SUB SLT ISZERO PUSH2 0x949 JUMPI PUSH2 0x948 PUSH2 0x71A JUMP JUMPDEST JUMPDEST PUSH0 DUP4 ADD CALLDATALOAD PUSH8 0xFFFFFFFFFFFFFFFF DUP2 GT ISZERO PUSH2 0x966 JUMPI PUSH2 0x965 PUSH2 0x71E JUMP JUMPDEST JUMPDEST PUSH2 0x972 DUP6 DUP3 DUP7 ADD PUSH2 0x906 JUMP JUMPDEST SWAP3 POP POP PUSH1 0x20 PUSH2 0x983 DUP6 DUP3 DUP7 ADD PUSH2 0x738 JUMP JUMPDEST SWAP2 POP POP SWAP3 POP SWAP3 SWAP1 POP JUMP JUMPDEST PUSH0 DUP2 MLOAD SWAP1 POP SWAP2 SWAP1 POP JUMP JUMPDEST PUSH0 DUP3 DUP3 MSTORE PUSH1 0x20 DUP3 ADD SWAP1 POP SWAP3 SWAP2 POP POP JUMP JUMPDEST PUSH0 DUP2 SWAP1 POP PUSH1 0x20 DUP3 ADD SWAP1 POP SWAP2 SWAP1 POP JUMP JUMPDEST PUSH2 0x9BF DUP2 PUSH2 0x6AD JUMP JUMPDEST DUP3 MSTORE POP POP JUMP JUMPDEST PUSH0 PUSH2 0x9D0 DUP4 DUP4 PUSH2 0x9B6 JUMP JUMPDEST PUSH1 0x20 DUP4 ADD SWAP1 POP SWAP3 SWAP2 POP POP JUMP JUMPDEST PUSH0 PUSH1 0x20 DUP3 ADD SWAP1 POP SWAP2 SWAP1 POP JUMP JUMPDEST PUSH0 PUSH2 0x9F2 DUP3 PUSH2 0x98D JUMP JUMPDEST PUSH2 0x9FC DUP2 DUP6 PUSH2 0x997 JUMP JUMPDEST SWAP4 POP PUSH2 0xA07 DUP4 PUSH2 0x9A7 JUMP JUMPDEST DUP1 PUSH0 JUMPDEST DUP4 DUP2 LT ISZERO PUSH2 0xA37 JUMPI DUP2 MLOAD PUSH2 0xA1E DUP9 DUP3 PUSH2 0x9C5 JUMP JUMPDEST SWAP8 POP PUSH2 0xA29 DUP4 PUSH2 0x9DC JUMP JUMPDEST SWAP3 POP POP PUSH1 0x1 DUP2 ADD SWAP1 POP PUSH2 0xA0A JUMP JUMPDEST POP DUP6 SWAP4 POP POP POP POP SWAP3 SWAP2 POP POP JUMP JUMPDEST PUSH0 PUSH1 0x20 DUP3 ADD SWAP1 POP DUP2 DUP2 SUB PUSH0 DUP4 ADD MSTORE PUSH2 0xA5C DUP2 DUP5 PUSH2 0x9E8 JUMP JUMPDEST SWAP1 POP SWAP3 SWAP2 POP POP JUMP JUMPDEST PUSH0 PUSH1 0x40 DUP3 ADD SWAP1 POP DUP2 DUP2 SUB PUSH0 DUP4 ADD MSTORE PUSH2 0xA7C DUP2 DUP6 PUSH2 0x7AF JUMP JUMPDEST SWAP1 POP PUSH2 0xA8B PUSH1 0x20 DUP4 ADD DUP5 PUSH2 0x6B6 JUMP JUMPDEST SWAP4 SWAP3 POP POP POP JUMP JUMPDEST PUSH32 0x4E487B7100000000000000000000000000000000000000000000000000000000 PUSH0 MSTORE PUSH1 0x21 PUSH1 0x4 MSTORE PUSH1 0x24 PUSH0 REVERT JUMPDEST PUSH1 0x2 DUP2 LT PUSH2 0xAD0 JUMPI PUSH2 0xACF PUSH2 0xA92 JUMP JUMPDEST JUMPDEST POP JUMP JUMPDEST PUSH0 DUP2 SWAP1 POP PUSH2 0xAE0 DUP3 PUSH2 0xABF JUMP JUMPDEST SWAP2 SWAP1 POP JUMP JUMPDEST PUSH0 PUSH2 0xAEF DUP3 PUSH2 0xAD3 JUMP JUMPDEST SWAP1 POP SWAP2 SWAP1 POP JUMP JUMPDEST PUSH2 0xAFF DUP2 PUSH2 0xAE5 JUMP JUMPDEST DUP3 MSTORE POP POP JUMP JUMPDEST PUSH0 PUSH1 0x20 DUP3 ADD SWAP1 POP PUSH2 0xB18 PUSH0 DUP4 ADD DUP5 PUSH2 0xAF6 JUMP JUMPDEST SWAP3 SWAP2 POP POP JUMP JUMPDEST PUSH32 0x4E487B7100000000000000000000000000000000000000000000000000000000 PUSH0 MSTORE PUSH1 0x11 PUSH1 0x4 MSTORE PUSH1 0x24 PUSH0 REVERT JUMPDEST PUSH0 PUSH2 0xB55 DUP3 PUSH2 0x6AD JUMP JUMPDEST SWAP2 POP PUSH2 0xB60 DUP4 PUSH2 0x6AD JUMP JUMPDEST SWAP3 POP DUP3 DUP3 ADD SWAP1 POP DUP1 DUP3 GT ISZERO PUSH2 0xB78 JUMPI PUSH2 0xB77 PUSH2 0xB1E JUMP JUMPDEST JUMPDEST SWAP3 SWAP2 POP POP JUMP JUMPDEST PUSH0 PUSH2 0xB88 DUP3 PUSH2 0x6AD JUMP JUMPDEST SWAP2 POP PUSH32 0xFFFFFFFFFFFFFFFFFFFFFFFFFFFFFFFFFFFFFFFFFFFFFFFFFFFFFFFFFFFFFFFF DUP3 SUB PUSH2 0xBBA JUMPI PUSH2 0xBB9 PUSH2 0xB1E JUMP JUMPDEST JUMPDEST PUSH1 0x1 DUP3 ADD SWAP1 POP SWAP2 SWAP1 POP JUMP JUMPDEST PUSH32 0x4E487B7100000000000000000000000000000000000000000000000000000000 PUSH0 MSTORE PUSH1 0x22 PUSH1 0x4 MSTORE PUSH1 0x24 PUSH0 REVERT JUMPDEST PUSH0 PUSH1 0x2 DUP3 DIV SWAP1 POP PUSH1 0x1 DUP3 AND DUP1 PUSH2 0xC09 JUMPI PUSH1 0x7F DUP3 AND SWAP2 POP JUMPDEST PUSH1 0x20 DUP3 LT DUP2 SUB PUSH2 0xC1C JUMPI PUSH2 0xC1B PUSH2 0xBC5 JUMP JUMPDEST JUMPDEST POP SWAP2 SWAP1 POP JUMP JUMPDEST PUSH0 DUP2 SWAP1 POP DUP2 PUSH0 MSTORE PUSH1 0x20 PUSH0 KECCAK256 SWAP1 POP SWAP2 SWAP1 POP JUMP JUMPDEST PUSH0 PUSH1 0x20 PUSH1 0x1F DUP4 ADD DIV SWAP1 POP SWAP2 SWAP1 POP JUMP JUMPDEST PUSH0 DUP3 DUP3 SHL SWAP1 POP SWAP3 SWAP2 POP POP JUMP JUMPDEST PUSH0 PUSH1 0x8 DUP4 MUL PUSH2 0xC7E PUSH32 0xFFFFFFFFFFFFFFFFFFFFFFFFFFFFFFFFFFFFFFFFFFFFFFFFFFFFFFFFFFFFFFFF DUP3 PUSH2 0xC43 JUMP JUMPDEST PUSH2 0xC88 DUP7 DUP4 PUSH2 0xC43 JUMP JUMPDEST SWAP6 POP DUP1 NOT DUP5 AND SWAP4 POP DUP1 DUP7 AND DUP5 OR SWAP3 POP POP POP SWAP4 SWAP3 POP POP POP JUMP JUMPDEST PUSH0 DUP2 SWAP1 POP SWAP2 SWAP1 POP JUMP JUMPDEST PUSH0 PUSH2 0xCC3 PUSH2 0xCBE PUSH2 0xCB9 DUP5 PUSH2 0x6AD JUMP JUMPDEST PUSH2 0xCA0 JUMP JUMPDEST PUSH2 0x6AD JUMP JUMPDEST SWAP1 POP SWAP2 SWAP1 POP JUMP JUMPDEST PUSH0 DUP2 SWAP1 POP SWAP2 SWAP1 POP JUMP JUMPDEST PUSH2 0xCDC DUP4 PUSH2 0xCA9 JUMP JUMPDEST PUSH2 0xCF0 PUSH2 0xCE8 DUP3 PUSH2 0xCCA JUMP JUMPDEST DUP5 DUP5 SLOAD PUSH2 0xC4F JUMP JUMPDEST DUP3 SSTORE POP POP POP POP JUMP JUMPDEST PUSH0 SWAP1 JUMP JUMPDEST PUSH2 0xD04 PUSH2 0xCF8 JUMP JUMPDEST PUSH2 0xD0F DUP2 DUP5 DUP5 PUSH2 0xCD3 JUMP JUMPDEST POP POP POP JUMP JUMPDEST JUMPDEST DUP2 DUP2 LT ISZERO PUSH2 0xD32 JUMPI PUSH2 0xD27 PUSH0 DUP3 PUSH2 0xCFC JUMP JUMPDEST PUSH1 0x1 DUP2 ADD SWAP1 POP PUSH2 0xD15 JUMP JUMPDEST POP POP JUMP JUMPDEST PUSH1 0x1F DUP3 GT ISZERO PUSH2 0xD77 JUMPI PUSH2 0xD48 DUP2 PUSH2 0xC22 JUMP JUMPDEST PUSH2 0xD51 DUP5 PUSH2 0xC34 JUMP JUMPDEST DUP2 ADD PUSH1 0x20 DUP6 LT ISZERO PUSH2 0xD60 JUMPI DUP2 SWAP1 POP JUMPDEST PUSH2 0xD74 PUSH2 0xD6C DUP6 PUSH2 0xC34 JUMP JUMPDEST DUP4 ADD DUP3 PUSH2 0xD14 JUMP JUMPDEST POP POP JUMPDEST POP POP POP JUMP JUMPDEST PUSH0 DUP3 DUP3 SHR SWAP1 POP SWAP3 SWAP2 POP POP JUMP JUMPDEST PUSH0 PUSH2 0xD97 PUSH0 NOT DUP5 PUSH1 0x8 MUL PUSH2 0xD7C JUMP JUMPDEST NOT DUP1 DUP4 AND SWAP2 POP POP SWAP3 SWAP2 POP POP JUMP JUMPDEST PUSH0 PUSH2 0xDAF DUP4 DUP4 PUSH2 0xD88 JUMP JUMPDEST SWAP2 POP DUP3 PUSH1 0x2 MUL DUP3 OR SWAP1 POP SWAP3 SWAP2 POP POP JUMP JUMPDEST PUSH2 0xDC8 DUP3 PUSH2 0x777 JUMP JUMPDEST PUSH8 0xFFFFFFFFFFFFFFFF DUP2 GT ISZERO PUSH2 0xDE1 JUMPI PUSH2 0xDE0 PUSH2 0x80F JUMP JUMPDEST JUMPDEST PUSH2 0xDEB DUP3 SLOAD PUSH2 0xBF2 JUMP JUMPDEST PUSH2 0xDF6 DUP3 DUP3 DUP6 PUSH2 0xD36 JUMP JUMPDEST PUSH0 PUSH1 0x20 SWAP1 POP PUSH1 0x1F DUP4 GT PUSH1 0x1 DUP2 EQ PUSH2 0xE27 JUMPI PUSH0 DUP5 ISZERO PUSH2 0xE15 JUMPI DUP3 DUP8 ADD MLOAD SWAP1 POP JUMPDEST PUSH2 0xE1F DUP6 DUP3 PUSH2 0xDA4 JUMP JUMPDEST DUP7 SSTORE POP PUSH2 0xE86 JUMP JUMPDEST PUSH1 0x1F NOT DUP5 AND PUSH2 0xE35 DUP7 PUSH2 0xC22 JUMP JUMPDEST PUSH0 JUMPDEST DUP3 DUP2 LT ISZERO PUSH2 0xE5C JUMPI DUP5 DUP10 ADD MLOAD DUP3 SSTORE PUSH1 0x1 DUP3 ADD SWAP2 POP PUSH1 0x20 DUP6 ADD SWAP5 POP PUSH1 0x20 DUP2 ADD SWAP1 POP PUSH2 0xE37 JUMP JUMPDEST DUP7 DUP4 LT ISZERO PUSH2 0xE79 JUMPI DUP5 DUP10 ADD MLOAD PUSH2 0xE75 PUSH1 0x1F DUP10 AND DUP3 PUSH2 0xD88 JUMP JUMPDEST DUP4 SSTORE POP JUMPDEST PUSH1 0x1 PUSH1 0x2 DUP9 MUL ADD DUP9 SSTORE POP POP POP JUMPDEST POP POP POP POP POP POP JUMP JUMPDEST PUSH0 PUSH2 0xEA0 PUSH2 0xE9B DUP5 PUSH2 0x887 JUMP JUMPDEST PUSH2 0x86D JUMP JUMPDEST SWAP1 POP DUP3 DUP2 MSTORE PUSH1 0x20 DUP2 ADD DUP5 DUP5 DUP5 ADD GT ISZERO PUSH2 0xEBC JUMPI PUSH2 0xEBB PUSH2 0x80B JUMP JUMPDEST JUMPDEST PUSH2 0xEC7 DUP5 DUP3 DUP6 PUSH2 0x791 JUMP JUMPDEST POP SWAP4 SWAP3 POP POP POP JUMP JUMPDEST PUSH0 DUP3 PUSH1 0x1F DUP4 ADD SLT PUSH2 0xEE3 JUMPI PUSH2 0xEE2 PUSH2 0x807 JUMP JUMPDEST JUMPDEST DUP2 MLOAD PUSH2 0xEF3 DUP5 DUP3 PUSH1 0x20 DUP7 ADD PUSH2 0xE8E JUMP JUMPDEST SWAP2 POP POP SWAP3 SWAP2 POP POP JUMP JUMPDEST PUSH0 PUSH1 0x20 DUP3 DUP5 SUB SLT ISZERO PUSH2 0xF11 JUMPI PUSH2 0xF10 PUSH2 0x71A JUMP JUMPDEST JUMPDEST PUSH0 DUP3 ADD MLOAD PUSH8 0xFFFFFFFFFFFFFFFF DUP2 GT ISZERO PUSH2 0xF2E JUMPI PUSH2 0xF2D PUSH2 0x71E JUMP JUMPDEST JUMPDEST PUSH2 0xF3A DUP5 DUP3 DUP6 ADD PUSH2 0xECF JUMP JUMPDEST SWAP2 POP POP SWAP3 SWAP2 POP POP JUMP INVALID LOG2 PUSH5 0x6970667358 0x22 SLT KECCAK256 0xC8 PUSH7 0x8EEE64E6FD8077 TLOAD DELEGATECALL PUSH24 0xE950CF1F41B2866F559F74CD29FA90C81895467064736F6C PUSH4 0x4300081A STOP CALLER "
				},
				"gasEstimates": {
					"creation": {
						"codeDepositCost": "792200",
						"executionCost": "823",
						"totalCost": "793023"
					},
					"external": {
						"activateContract()": "24495",
						"addFavoriteNumber(uint256)": "46888",
						"addPerson(string,uint256)": "infinite",
						"callInternalFunction()": "infinite",
						"deactivateContract()": "24451",
						"externalFunction()": "infinite",
						"favoriteNumbers(uint256)": "infinite",
						"getFavoriteNumber()": "2477",
						"isActive()": "2577",
						"isGreaterThan(uint256)": "2801",
						"people(uint256)": "infinite",
						"returnNumbers()": "infinite",
						"state()": "2598",
						"storeNumber(uint256)": "22603",
						"sumToFavoriteNumber()": "infinite",
						"testExternalFunction()": "infinite"
					},
					"internal": {
						"internalFunction()": "infinite"
					}
				},
				"methodIdentifiers": {
					"activateContract()": "8fda356d",
					"addFavoriteNumber(uint256)": "a7e1a364",
					"addPerson(string,uint256)": "6f760f41",
					"callInternalFunction()": "8701f8ca",
					"deactivateContract()": "bca353be",
					"externalFunction()": "3a32b549",
					"favoriteNumbers(uint256)": "29cd1d96",
					"getFavoriteNumber()": "a621d15e",
					"isActive()": "22f3e2d4",
					"isGreaterThan(uint256)": "cb6a33f8",
					"people(uint256)": "9e7a13ad",
					"returnNumbers()": "99b8390a",
					"state()": "c19d93fb",
					"storeNumber(uint256)": "b6339418",
					"sumToFavoriteNumber()": "0cd2636e",
					"testExternalFunction()": "e0819c9a"
				}
			},
			"storageLayout": {
				"storage": [
					{
						"astId": 3,
						"contract": "SimpleStorage.sol:SimpleStorage",
						"label": "favoriteNumber",
						"offset": 0,
						"slot": "0",
						"type": "t_uint256"
					},
					{
						"astId": 6,
						"contract": "SimpleStorage.sol:SimpleStorage",
						"label": "favoriteNumbers",
						"offset": 0,
						"slot": "1",
						"type": "t_array(t_uint256)dyn_storage"
					},
					{
						"astId": 15,
						"contract": "SimpleStorage.sol:SimpleStorage",
						"label": "people",
						"offset": 0,
						"slot": "2",
						"type": "t_array(t_struct(Person)11_storage)dyn_storage"
					},
					{
						"astId": 21,
						"contract": "SimpleStorage.sol:SimpleStorage",
						"label": "state",
						"offset": 0,
						"slot": "3",
						"type": "t_enum(ContractState)18"
					}
				],
				"types": {
					"t_array(t_struct(Person)11_storage)dyn_storage": {
						"base": "t_struct(Person)11_storage",
						"encoding": "dynamic_array",
						"label": "struct SimpleStorage.Person[]",
						"numberOfBytes": "32"
					},
					"t_array(t_uint256)dyn_storage": {
						"base": "t_uint256",
						"encoding": "dynamic_array",
						"label": "uint256[]",
						"numberOfBytes": "32"
					},
					"t_enum(ContractState)18": {
						"encoding": "inplace",
						"label": "enum SimpleStorage.ContractState",
						"numberOfBytes": "1"
					},
					"t_string_storage": {
						"encoding": "bytes",
						"label": "string",
						"numberOfBytes": "32"
					},
					"t_struct(Person)11_storage": {
						"encoding": "inplace",
						"label": "struct SimpleStorage.Person",
						"members": [
							{
								"astId": 8,
								"contract": "SimpleStorage.sol:SimpleStorage",
								"label": "name",
								"offset": 0,
								"slot": "0",
								"type": "t_string_storage"
							},
							{
								"astId": 10,
								"contract": "SimpleStorage.sol:SimpleStorage",
								"label": "favoriteNumber",
								"offset": 0,
								"slot": "1",
								"type": "t_uint256"
							}
						],
						"numberOfBytes": "64"
					},
					"t_uint256": {
						"encoding": "inplace",
						"label": "uint256",
						"numberOfBytes": "32"
					}
				}
			},
			"userdoc": {
				"kind": "user",
				"methods": {},
				"version": 1
			}
		}
	}
}